{
  "_format": "hh-sol-artifact-1",
  "contractName": "EarlyStageManager",
  "sourceName": "contracts/EarlyStage/EarlyStageManager.sol",
  "abi": [
    {
      "anonymous": false,
      "inputs": [
        {
          "indexed": false,
          "internalType": "address",
          "name": "allocationToken",
          "type": "address"
        }
      ],
      "name": "AllocationTokenSet",
      "type": "event"
    },
    {
      "anonymous": false,
      "inputs": [
        {
          "indexed": false,
          "internalType": "address",
          "name": "analysisManager",
          "type": "address"
        }
      ],
      "name": "AnalysisManagerSet",
      "type": "event"
    },
    {
      "anonymous": false,
      "inputs": [
        {
          "indexed": false,
          "internalType": "uint256",
          "name": "creatorCooldownPeriod",
          "type": "uint256"
        }
      ],
      "name": "CreatorCooldownPeriodSet",
      "type": "event"
    },
    {
      "anonymous": false,
      "inputs": [
        {
          "indexed": false,
          "internalType": "address",
          "name": "dealSigner",
          "type": "address"
        }
      ],
      "name": "DealSignerSet",
      "type": "event"
    },
    {
      "anonymous": false,
      "inputs": [
        {
          "indexed": false,
          "internalType": "address",
          "name": "nestAddress",
          "type": "address"
        },
        {
          "indexed": false,
          "internalType": "address",
          "name": "vestingAddress",
          "type": "address"
        },
        {
          "components": [
            {
              "internalType": "uint256",
              "name": "releaseDate",
              "type": "uint256"
            },
            {
              "internalType": "uint256",
              "name": "tokensAmount",
              "type": "uint256"
            }
          ],
          "indexed": false,
          "internalType": "struct IVestingV2.DiscreteVestingRelease[]",
          "name": "vestingSchedule",
          "type": "tuple[]"
        },
        {
          "indexed": false,
          "internalType": "uint256",
          "name": "lockedPoolDuration",
          "type": "uint256"
        },
        {
          "indexed": false,
          "internalType": "uint256",
          "name": "startingFeeMantissa",
          "type": "uint256"
        }
      ],
      "name": "DiscreteVestingCreated",
      "type": "event"
    },
    {
      "anonymous": false,
      "inputs": [
        {
          "indexed": false,
          "internalType": "address",
          "name": "discreteVestingFactory",
          "type": "address"
        }
      ],
      "name": "DiscreteVestingFactorySet",
      "type": "event"
    },
    {
      "anonymous": false,
      "inputs": [
        {
          "indexed": false,
          "internalType": "address",
          "name": "exchangeBoostRegistry",
          "type": "address"
        }
      ],
      "name": "ExchangeBoostRegistrySet",
      "type": "event"
    },
    {
      "anonymous": false,
      "inputs": [
        {
          "indexed": false,
          "internalType": "uint8",
          "name": "version",
          "type": "uint8"
        }
      ],
      "name": "Initialized",
      "type": "event"
    },
    {
      "anonymous": false,
      "inputs": [
        {
          "indexed": false,
          "internalType": "address",
          "name": "kyc",
          "type": "address"
        }
      ],
      "name": "KycSet",
      "type": "event"
    },
    {
      "anonymous": false,
      "inputs": [
        {
          "indexed": false,
          "internalType": "address",
          "name": "nestAddress",
          "type": "address"
        },
        {
          "indexed": false,
          "internalType": "address",
          "name": "vestingAddress",
          "type": "address"
        },
        {
          "components": [
            {
              "internalType": "uint256",
              "name": "startTimestamp",
              "type": "uint256"
            },
            {
              "internalType": "uint256",
              "name": "initialRelease",
              "type": "uint256"
            },
            {
              "internalType": "uint256",
              "name": "cliff",
              "type": "uint256"
            },
            {
              "internalType": "uint256",
              "name": "period",
              "type": "uint256"
            },
            {
              "internalType": "uint256",
              "name": "lockedPoolDuration",
              "type": "uint256"
            },
            {
              "internalType": "uint256",
              "name": "startingFeeMantissa",
              "type": "uint256"
            }
          ],
          "indexed": false,
          "internalType": "struct IVestingV2.LinearVestingParameters",
          "name": "vestingParameters",
          "type": "tuple"
        }
      ],
      "name": "LinearVestingCreated",
      "type": "event"
    },
    {
      "anonymous": false,
      "inputs": [
        {
          "indexed": false,
          "internalType": "address",
          "name": "linearVestingFactory",
          "type": "address"
        }
      ],
      "name": "LinearVestingFactorySet",
      "type": "event"
    },
    {
      "anonymous": false,
      "inputs": [
        {
          "indexed": true,
          "internalType": "address",
          "name": "nestAddress",
          "type": "address"
        },
        {
          "indexed": false,
          "internalType": "address",
          "name": "projectCreator",
          "type": "address"
        },
        {
          "indexed": false,
          "internalType": "string",
          "name": "dataURI",
          "type": "string"
        }
      ],
      "name": "ProjectCreated",
      "type": "event"
    },
    {
      "anonymous": false,
      "inputs": [
        {
          "indexed": true,
          "internalType": "address",
          "name": "nestAddress",
          "type": "address"
        },
        {
          "indexed": false,
          "internalType": "string",
          "name": "dataURI",
          "type": "string"
        }
      ],
      "name": "ProjectDataUpdated",
      "type": "event"
    },
    {
      "anonymous": false,
      "inputs": [
        {
          "indexed": true,
          "internalType": "address",
          "name": "nestAddress",
          "type": "address"
        },
        {
          "indexed": false,
          "internalType": "bool",
          "name": "hidden",
          "type": "bool"
        }
      ],
      "name": "ProjectHidden",
      "type": "event"
    },
    {
      "anonymous": false,
      "inputs": [
        {
          "indexed": false,
          "internalType": "address",
          "name": "projectNestFactory",
          "type": "address"
        }
      ],
      "name": "ProjectNestFactorySet",
      "type": "event"
    },
    {
      "anonymous": false,
      "inputs": [
        {
          "indexed": true,
          "internalType": "address",
          "name": "nestAddress",
          "type": "address"
        },
        {
          "indexed": false,
          "internalType": "enum IEarlyStageManager.Phase",
          "name": "phase",
          "type": "uint8"
        }
      ],
      "name": "ProjectPhaseUpdated",
      "type": "event"
    },
    {
      "anonymous": false,
      "inputs": [
        {
          "indexed": true,
          "internalType": "bytes32",
          "name": "role",
          "type": "bytes32"
        },
        {
          "indexed": true,
          "internalType": "bytes32",
          "name": "previousAdminRole",
          "type": "bytes32"
        },
        {
          "indexed": true,
          "internalType": "bytes32",
          "name": "newAdminRole",
          "type": "bytes32"
        }
      ],
      "name": "RoleAdminChanged",
      "type": "event"
    },
    {
      "anonymous": false,
      "inputs": [
        {
          "indexed": true,
          "internalType": "bytes32",
          "name": "role",
          "type": "bytes32"
        },
        {
          "indexed": true,
          "internalType": "address",
          "name": "account",
          "type": "address"
        },
        {
          "indexed": true,
          "internalType": "address",
          "name": "sender",
          "type": "address"
        }
      ],
      "name": "RoleGranted",
      "type": "event"
    },
    {
      "anonymous": false,
      "inputs": [
        {
          "indexed": true,
          "internalType": "bytes32",
          "name": "role",
          "type": "bytes32"
        },
        {
          "indexed": true,
          "internalType": "address",
          "name": "account",
          "type": "address"
        },
        {
          "indexed": true,
          "internalType": "address",
          "name": "sender",
          "type": "address"
        }
      ],
      "name": "RoleRevoked",
      "type": "event"
    },
    {
      "anonymous": false,
      "inputs": [
        {
          "indexed": false,
          "internalType": "address",
          "name": "staking",
          "type": "address"
        }
      ],
      "name": "StakingSet",
      "type": "event"
    },
    {
      "anonymous": false,
      "inputs": [
        {
          "indexed": true,
          "internalType": "address",
          "name": "nestAddress",
          "type": "address"
        },
        {
          "indexed": true,
          "internalType": "address",
          "name": "vestingAddress",
          "type": "address"
        },
        {
          "indexed": false,
          "internalType": "string",
          "name": "dataURI",
          "type": "string"
        }
      ],
      "name": "VestingDetailsUpdated",
      "type": "event"
    },
    {
      "inputs": [],
      "name": "DEFAULT_ADMIN_ROLE",
      "outputs": [
        {
          "internalType": "bytes32",
          "name": "",
          "type": "bytes32"
        }
      ],
      "stateMutability": "view",
      "type": "function"
    },
    {
      "inputs": [],
      "name": "FUNDRAISING_MANAGER_ROLE",
      "outputs": [
        {
          "internalType": "bytes32",
          "name": "",
          "type": "bytes32"
        }
      ],
      "stateMutability": "view",
      "type": "function"
    },
    {
      "inputs": [],
      "name": "allocationToken",
      "outputs": [
        {
          "internalType": "contract ICollateralTokenV2",
          "name": "",
          "type": "address"
        }
      ],
      "stateMutability": "view",
      "type": "function"
    },
    {
      "inputs": [],
      "name": "analysisManager",
      "outputs": [
        {
          "internalType": "contract IAnalysisManager",
          "name": "",
          "type": "address"
        }
      ],
      "stateMutability": "view",
      "type": "function"
    },
    {
      "inputs": [
        {
          "internalType": "address",
          "name": "nestAddress_",
          "type": "address"
        },
        {
          "internalType": "address",
          "name": "account_",
          "type": "address"
        }
      ],
      "name": "claimCeTokens",
      "outputs": [],
      "stateMutability": "nonpayable",
      "type": "function"
    },
    {
      "inputs": [
        {
          "internalType": "string",
          "name": "dataURI_",
          "type": "string"
        }
      ],
      "name": "createProject",
      "outputs": [
        {
          "internalType": "address",
          "name": "",
          "type": "address"
        }
      ],
      "stateMutability": "nonpayable",
      "type": "function"
    },
    {
      "inputs": [],
      "name": "creatorCooldownPeriod",
      "outputs": [
        {
          "internalType": "uint256",
          "name": "",
          "type": "uint256"
        }
      ],
      "stateMutability": "view",
      "type": "function"
    },
    {
      "inputs": [
        {
          "internalType": "address",
          "name": "",
          "type": "address"
        },
        {
          "internalType": "uint256",
          "name": "",
          "type": "uint256"
        }
      ],
      "name": "creatorProjects",
      "outputs": [
        {
          "internalType": "address",
          "name": "",
          "type": "address"
        }
      ],
      "stateMutability": "view",
      "type": "function"
    },
    {
      "inputs": [
        {
          "internalType": "address",
          "name": "creator_",
          "type": "address"
        }
      ],
      "name": "creatorProjectsLength",
      "outputs": [
        {
          "internalType": "uint256",
          "name": "",
          "type": "uint256"
        }
      ],
      "stateMutability": "view",
      "type": "function"
    },
    {
      "inputs": [],
      "name": "dealSigner",
      "outputs": [
        {
          "internalType": "contract IDealSigner",
          "name": "",
          "type": "address"
        }
      ],
      "stateMutability": "view",
      "type": "function"
    },
    {
      "inputs": [],
      "name": "discreteVestingFactory",
      "outputs": [
        {
          "internalType": "contract IDiscreteVestingV2Factory",
          "name": "",
          "type": "address"
        }
      ],
      "stateMutability": "view",
      "type": "function"
    },
    {
      "inputs": [
        {
          "internalType": "address",
          "name": "nestAddress_",
          "type": "address"
        },
        {
          "internalType": "bool",
          "name": "hidden",
          "type": "bool"
        }
      ],
      "name": "emitProjectHiddenFlag",
      "outputs": [],
      "stateMutability": "nonpayable",
      "type": "function"
    },
    {
      "inputs": [],
      "name": "exchangeBoostRegistry",
      "outputs": [
        {
          "internalType": "contract IExchangeBoostRegistry",
          "name": "",
          "type": "address"
        }
      ],
      "stateMutability": "view",
      "type": "function"
    },
    {
      "inputs": [
        {
          "internalType": "address",
          "name": "nestAddress_",
          "type": "address"
        },
        {
          "internalType": "bytes",
          "name": "signature_",
          "type": "bytes"
        }
      ],
      "name": "finalizeDeal",
      "outputs": [],
      "stateMutability": "nonpayable",
      "type": "function"
    },
    {
      "inputs": [
        {
          "internalType": "bytes32",
          "name": "role",
          "type": "bytes32"
        }
      ],
      "name": "getRoleAdmin",
      "outputs": [
        {
          "internalType": "bytes32",
          "name": "",
          "type": "bytes32"
        }
      ],
      "stateMutability": "view",
      "type": "function"
    },
    {
      "inputs": [
        {
          "internalType": "bytes32",
          "name": "role",
          "type": "bytes32"
        },
        {
          "internalType": "uint256",
          "name": "index",
          "type": "uint256"
        }
      ],
      "name": "getRoleMember",
      "outputs": [
        {
          "internalType": "address",
          "name": "",
          "type": "address"
        }
      ],
      "stateMutability": "view",
      "type": "function"
    },
    {
      "inputs": [
        {
          "internalType": "bytes32",
          "name": "role",
          "type": "bytes32"
        }
      ],
      "name": "getRoleMemberCount",
      "outputs": [
        {
          "internalType": "uint256",
          "name": "",
          "type": "uint256"
        }
      ],
      "stateMutability": "view",
      "type": "function"
    },
    {
      "inputs": [
        {
          "internalType": "bytes32",
          "name": "role",
          "type": "bytes32"
        },
        {
          "internalType": "address",
          "name": "account",
          "type": "address"
        }
      ],
      "name": "grantRole",
      "outputs": [],
      "stateMutability": "nonpayable",
      "type": "function"
    },
    {
      "inputs": [
        {
          "internalType": "bytes32",
          "name": "role",
          "type": "bytes32"
        },
        {
          "internalType": "address",
          "name": "account",
          "type": "address"
        }
      ],
      "name": "hasRole",
      "outputs": [
        {
          "internalType": "bool",
          "name": "",
          "type": "bool"
        }
      ],
      "stateMutability": "view",
      "type": "function"
    },
    {
      "inputs": [
        {
          "internalType": "address",
          "name": "nestAddress_",
          "type": "address"
        },
        {
          "internalType": "uint256",
          "name": "amount_",
          "type": "uint256"
        }
      ],
      "name": "increaseAllocation",
      "outputs": [],
      "stateMutability": "nonpayable",
      "type": "function"
    },
    {
      "inputs": [
        {
          "internalType": "address",
          "name": "nestAddress_",
          "type": "address"
        },
        {
          "internalType": "uint256",
          "name": "amount_",
          "type": "uint256"
        },
        {
          "internalType": "bytes",
          "name": "signature_",
          "type": "bytes"
        }
      ],
      "name": "increaseInvestment",
      "outputs": [],
      "stateMutability": "nonpayable",
      "type": "function"
    },
    {
      "inputs": [
        {
          "internalType": "address",
          "name": "staking_",
          "type": "address"
        },
        {
          "internalType": "address",
          "name": "kyc_",
          "type": "address"
        },
        {
          "internalType": "address",
          "name": "projectNestFactory_",
          "type": "address"
        },
        {
          "internalType": "address",
          "name": "linearVestingFactory_",
          "type": "address"
        },
        {
          "internalType": "address",
          "name": "discreteVestingFactory_",
          "type": "address"
        },
        {
          "internalType": "address",
          "name": "dealSigner_",
          "type": "address"
        },
        {
          "internalType": "address",
          "name": "allocationToken_",
          "type": "address"
        },
        {
          "internalType": "address",
          "name": "exchangeBoostRegistry_",
          "type": "address"
        },
        {
          "internalType": "uint256",
          "name": "creatorCooldownPeriod_",
          "type": "uint256"
        }
      ],
      "name": "initialize",
      "outputs": [],
      "stateMutability": "nonpayable",
      "type": "function"
    },
    {
      "inputs": [
        {
          "internalType": "address",
          "name": "nestAddress_",
          "type": "address"
        },
        {
          "internalType": "uint256",
          "name": "raiseTarget_",
          "type": "uint256"
        },
        {
          "internalType": "address",
          "name": "supportedStablecoin_",
          "type": "address"
        },
        {
          "internalType": "address",
          "name": "stablecoinDistributor_",
          "type": "address"
        },
        {
          "internalType": "address",
          "name": "ceTokenDistributor_",
          "type": "address"
        },
        {
          "internalType": "uint256",
          "name": "allocationParameterA_",
          "type": "uint256"
        },
        {
          "internalType": "uint256",
          "name": "allocationParameterB_",
          "type": "uint256"
        }
      ],
      "name": "initializeProjectNest",
      "outputs": [],
      "stateMutability": "nonpayable",
      "type": "function"
    },
    {
      "inputs": [],
      "name": "kyc",
      "outputs": [
        {
          "internalType": "contract IKYC",
          "name": "",
          "type": "address"
        }
      ],
      "stateMutability": "view",
      "type": "function"
    },
    {
      "inputs": [],
      "name": "linearVestingFactory",
      "outputs": [
        {
          "internalType": "contract ILinearVestingV2Factory",
          "name": "",
          "type": "address"
        }
      ],
      "stateMutability": "view",
      "type": "function"
    },
    {
      "inputs": [
        {
          "internalType": "address",
          "name": "nestAddress_",
          "type": "address"
        },
        {
          "internalType": "contract IExchangeStrategy",
          "name": "exchangeStrategy_",
          "type": "address"
        },
        {
          "internalType": "uint256",
          "name": "desiredAvaxAmountOut_",
          "type": "uint256"
        },
        {
          "components": [
            {
              "internalType": "uint256",
              "name": "rangeShare",
              "type": "uint256"
            },
            {
              "internalType": "uint256",
              "name": "rangePeriod",
              "type": "uint256"
            }
          ],
          "internalType": "struct IRewarder.DistributionRangeInput[]",
          "name": "rewardRanges_",
          "type": "tuple[]"
        }
      ],
      "name": "moveProjectToPortfolioAndCreateInitialLP",
      "outputs": [],
      "stateMutability": "nonpayable",
      "type": "function"
    },
    {
      "inputs": [
        {
          "internalType": "address",
          "name": "nestAddress_",
          "type": "address"
        },
        {
          "internalType": "address",
          "name": "account_",
          "type": "address"
        }
      ],
      "name": "penalizeAccountAllocation",
      "outputs": [],
      "stateMutability": "nonpayable",
      "type": "function"
    },
    {
      "inputs": [
        {
          "internalType": "address",
          "name": "nestAddress_",
          "type": "address"
        }
      ],
      "name": "penalizeAllocation",
      "outputs": [],
      "stateMutability": "nonpayable",
      "type": "function"
    },
    {
      "inputs": [
        {
          "internalType": "address",
          "name": "nestAddress_",
          "type": "address"
        }
      ],
      "name": "projectData",
      "outputs": [
        {
          "components": [
            {
              "internalType": "string",
              "name": "nestDataURI",
              "type": "string"
            },
            {
              "internalType": "string",
              "name": "vestingDataURI",
              "type": "string"
            },
            {
              "internalType": "enum IEarlyStageManager.Phase",
              "name": "phase",
              "type": "uint8"
            },
            {
              "internalType": "uint256",
              "name": "createdAt",
              "type": "uint256"
            }
          ],
          "internalType": "struct IEarlyStageManager.Project",
          "name": "",
          "type": "tuple"
        }
      ],
      "stateMutability": "view",
      "type": "function"
    },
    {
      "inputs": [
        {
          "internalType": "address",
          "name": "nestAddress_",
          "type": "address"
        }
      ],
      "name": "projectExist",
      "outputs": [
        {
          "internalType": "bool",
          "name": "",
          "type": "bool"
        }
      ],
      "stateMutability": "view",
      "type": "function"
    },
    {
      "inputs": [],
      "name": "projectNestFactory",
      "outputs": [
        {
          "internalType": "contract IProjectNestFactory",
          "name": "",
          "type": "address"
        }
      ],
      "stateMutability": "view",
      "type": "function"
    },
    {
      "inputs": [
        {
          "internalType": "address",
          "name": "nestAddress_",
          "type": "address"
        }
      ],
      "name": "projectPhase",
      "outputs": [
        {
          "internalType": "enum IEarlyStageManager.Phase",
          "name": "",
          "type": "uint8"
        }
      ],
      "stateMutability": "view",
      "type": "function"
    },
    {
      "inputs": [
        {
          "internalType": "address",
          "name": "nestAddress_",
          "type": "address"
        },
        {
          "internalType": "uint256",
          "name": "amount_",
          "type": "uint256"
        }
      ],
      "name": "reduceAllocation",
      "outputs": [],
      "stateMutability": "nonpayable",
      "type": "function"
    },
    {
      "inputs": [
        {
          "internalType": "address",
          "name": "nestAddress_",
          "type": "address"
        },
        {
          "internalType": "address",
          "name": "account_",
          "type": "address"
        }
      ],
      "name": "refund",
      "outputs": [],
      "stateMutability": "nonpayable",
      "type": "function"
    },
    {
      "inputs": [
        {
          "internalType": "bytes32",
          "name": "role",
          "type": "bytes32"
        },
        {
          "internalType": "address",
          "name": "account",
          "type": "address"
        }
      ],
      "name": "renounceRole",
      "outputs": [],
      "stateMutability": "nonpayable",
      "type": "function"
    },
    {
      "inputs": [
        {
          "internalType": "bytes32",
          "name": "role",
          "type": "bytes32"
        },
        {
          "internalType": "address",
          "name": "account",
          "type": "address"
        }
      ],
      "name": "revokeRole",
      "outputs": [],
      "stateMutability": "nonpayable",
      "type": "function"
    },
    {
      "inputs": [
        {
          "internalType": "address",
          "name": "allocationToken_",
          "type": "address"
        }
      ],
      "name": "setAllocationToken",
      "outputs": [],
      "stateMutability": "nonpayable",
      "type": "function"
    },
    {
      "inputs": [
        {
          "internalType": "address",
          "name": "analysisManager_",
          "type": "address"
        }
      ],
      "name": "setAnalysisManager",
      "outputs": [],
      "stateMutability": "nonpayable",
      "type": "function"
    },
    {
      "inputs": [
        {
          "internalType": "uint256",
          "name": "creatorCooldownPeriod_",
          "type": "uint256"
        }
      ],
      "name": "setCreatorCooldownPeriod",
      "outputs": [],
      "stateMutability": "nonpayable",
      "type": "function"
    },
    {
      "inputs": [
        {
          "internalType": "address",
          "name": "dealSigner_",
          "type": "address"
        }
      ],
      "name": "setDealSigner",
      "outputs": [],
      "stateMutability": "nonpayable",
      "type": "function"
    },
    {
      "inputs": [
        {
          "internalType": "address",
          "name": "nestAddress_",
          "type": "address"
        },
        {
          "internalType": "address",
          "name": "tokenAddress_",
          "type": "address"
        },
        {
          "internalType": "uint256",
          "name": "tokenPrice_",
          "type": "uint256"
        },
        {
          "components": [
            {
              "components": [
                {
                  "internalType": "uint256",
                  "name": "releaseDate",
                  "type": "uint256"
                },
                {
                  "internalType": "uint256",
                  "name": "tokensAmount",
                  "type": "uint256"
                }
              ],
              "internalType": "struct IVestingV2.DiscreteVestingRelease[]",
              "name": "schedule",
              "type": "tuple[]"
            },
            {
              "internalType": "uint256",
              "name": "startingFeeMantissa",
              "type": "uint256"
            },
            {
              "internalType": "uint256",
              "name": "lockedPoolDuration",
              "type": "uint256"
            }
          ],
          "internalType": "struct IVestingV2.DiscreteVestingParameters",
          "name": "vestingParameters_",
          "type": "tuple"
        }
      ],
      "name": "setDiscreteVestingData",
      "outputs": [],
      "stateMutability": "nonpayable",
      "type": "function"
    },
    {
      "inputs": [
        {
          "internalType": "address",
          "name": "discreteVestingFactory_",
          "type": "address"
        }
      ],
      "name": "setDiscreteVestingFactory",
      "outputs": [],
      "stateMutability": "nonpayable",
      "type": "function"
    },
    {
      "inputs": [
        {
          "internalType": "address",
          "name": "exchangeBoostRegistry_",
          "type": "address"
        }
      ],
      "name": "setExchangeBoostRegistry",
      "outputs": [],
      "stateMutability": "nonpayable",
      "type": "function"
    },
    {
      "inputs": [
        {
          "internalType": "address",
          "name": "nestAddress_",
          "type": "address"
        },
        {
          "internalType": "uint256",
          "name": "finalInvestment_",
          "type": "uint256"
        }
      ],
      "name": "setFinalInvestment",
      "outputs": [],
      "stateMutability": "nonpayable",
      "type": "function"
    },
    {
      "inputs": [
        {
          "internalType": "address",
          "name": "kyc_",
          "type": "address"
        }
      ],
      "name": "setKyc",
      "outputs": [],
      "stateMutability": "nonpayable",
      "type": "function"
    },
    {
      "inputs": [
        {
          "internalType": "address",
          "name": "nestAddress_",
          "type": "address"
        },
        {
          "internalType": "address",
          "name": "tokenAddress_",
          "type": "address"
        },
        {
          "internalType": "uint256",
          "name": "tokenPrice_",
          "type": "uint256"
        },
        {
          "components": [
            {
              "internalType": "uint256",
              "name": "startTimestamp",
              "type": "uint256"
            },
            {
              "internalType": "uint256",
              "name": "initialRelease",
              "type": "uint256"
            },
            {
              "internalType": "uint256",
              "name": "cliff",
              "type": "uint256"
            },
            {
              "internalType": "uint256",
              "name": "period",
              "type": "uint256"
            },
            {
              "internalType": "uint256",
              "name": "lockedPoolDuration",
              "type": "uint256"
            },
            {
              "internalType": "uint256",
              "name": "startingFeeMantissa",
              "type": "uint256"
            }
          ],
          "internalType": "struct IVestingV2.LinearVestingParameters",
          "name": "vestingParameters_",
          "type": "tuple"
        }
      ],
      "name": "setLinearVestingData",
      "outputs": [],
      "stateMutability": "nonpayable",
      "type": "function"
    },
    {
      "inputs": [
        {
          "internalType": "address",
          "name": "linearVestingFactory_",
          "type": "address"
        }
      ],
      "name": "setLinearVestingFactory",
      "outputs": [],
      "stateMutability": "nonpayable",
      "type": "function"
    },
    {
      "inputs": [
        {
          "internalType": "address",
          "name": "projectNestFactory_",
          "type": "address"
        }
      ],
      "name": "setProjectNestFactory",
      "outputs": [],
      "stateMutability": "nonpayable",
      "type": "function"
    },
    {
      "inputs": [
        {
          "internalType": "address",
          "name": "staking_",
          "type": "address"
        }
      ],
      "name": "setStaking",
      "outputs": [],
      "stateMutability": "nonpayable",
      "type": "function"
    },
    {
      "inputs": [],
      "name": "staking",
      "outputs": [
        {
          "internalType": "contract IStakingCore",
          "name": "",
          "type": "address"
        }
      ],
      "stateMutability": "view",
      "type": "function"
    },
    {
      "inputs": [
        {
          "internalType": "bytes4",
          "name": "interfaceId",
          "type": "bytes4"
        }
      ],
      "name": "supportsInterface",
      "outputs": [
        {
          "internalType": "bool",
          "name": "",
          "type": "bool"
        }
      ],
      "stateMutability": "view",
      "type": "function"
    },
    {
      "inputs": [
        {
          "internalType": "address",
          "name": "nestAddress_",
          "type": "address"
        },
        {
          "internalType": "address",
          "name": "ceTokenDistributor_",
          "type": "address"
        }
      ],
      "name": "updateCeTokenDistributionStrategy",
      "outputs": [],
      "stateMutability": "nonpayable",
      "type": "function"
    },
    {
      "inputs": [
        {
          "internalType": "address",
          "name": "nestAddress_",
          "type": "address"
        },
        {
          "components": [
            {
              "components": [
                {
                  "internalType": "uint256",
                  "name": "releaseDate",
                  "type": "uint256"
                },
                {
                  "internalType": "uint256",
                  "name": "tokensAmount",
                  "type": "uint256"
                }
              ],
              "internalType": "struct IVestingV2.DiscreteVestingRelease[]",
              "name": "schedule",
              "type": "tuple[]"
            },
            {
              "internalType": "uint256",
              "name": "startingFeeMantissa",
              "type": "uint256"
            },
            {
              "internalType": "uint256",
              "name": "lockedPoolDuration",
              "type": "uint256"
            }
          ],
          "internalType": "struct IVestingV2.DiscreteVestingParameters",
          "name": "vestingParameters_",
          "type": "tuple"
        }
      ],
      "name": "updateDiscreteVestingParameters",
      "outputs": [],
      "stateMutability": "nonpayable",
      "type": "function"
    },
    {
      "inputs": [
        {
          "internalType": "address",
          "name": "nestAddress_",
          "type": "address"
        },
        {
          "components": [
            {
              "internalType": "uint256",
              "name": "startTimestamp",
              "type": "uint256"
            },
            {
              "internalType": "uint256",
              "name": "initialRelease",
              "type": "uint256"
            },
            {
              "internalType": "uint256",
              "name": "cliff",
              "type": "uint256"
            },
            {
              "internalType": "uint256",
              "name": "period",
              "type": "uint256"
            },
            {
              "internalType": "uint256",
              "name": "lockedPoolDuration",
              "type": "uint256"
            },
            {
              "internalType": "uint256",
              "name": "startingFeeMantissa",
              "type": "uint256"
            }
          ],
          "internalType": "struct IVestingV2.LinearVestingParameters",
          "name": "vestingParameters_",
          "type": "tuple"
        }
      ],
      "name": "updateLinearVestingParameters",
      "outputs": [],
      "stateMutability": "nonpayable",
      "type": "function"
    },
    {
      "inputs": [
        {
          "internalType": "address",
          "name": "nestAddress_",
          "type": "address"
        },
        {
          "internalType": "string",
          "name": "dataURI_",
          "type": "string"
        }
      ],
      "name": "updateProjectData",
      "outputs": [],
      "stateMutability": "nonpayable",
      "type": "function"
    },
    {
      "inputs": [
        {
          "internalType": "address",
          "name": "nestAddress_",
          "type": "address"
        },
        {
          "internalType": "enum IEarlyStageManager.Phase",
          "name": "phase_",
          "type": "uint8"
        }
      ],
      "name": "updateProjectPhase",
      "outputs": [],
      "stateMutability": "nonpayable",
      "type": "function"
    },
    {
      "inputs": [
        {
          "internalType": "address",
          "name": "nestAddress_",
          "type": "address"
        },
        {
          "internalType": "uint256",
          "name": "raiseTarget_",
          "type": "uint256"
        }
      ],
      "name": "updateRaiseTarget",
      "outputs": [],
      "stateMutability": "nonpayable",
      "type": "function"
    },
    {
      "inputs": [
        {
          "internalType": "address",
          "name": "nestAddress_",
          "type": "address"
        },
        {
          "internalType": "address",
          "name": "stablecoinDistributor_",
          "type": "address"
        }
      ],
      "name": "updateStablecoinDistributionStrategy",
      "outputs": [],
      "stateMutability": "nonpayable",
      "type": "function"
    },
    {
      "inputs": [
        {
          "internalType": "address",
          "name": "nestAddress_",
          "type": "address"
        },
        {
          "internalType": "string",
          "name": "dataURI_",
          "type": "string"
        }
      ],
      "name": "updateVestingDetails",
      "outputs": [],
      "stateMutability": "nonpayable",
      "type": "function"
    }
  ],
  "bytecode": "0x608060405234801561001057600080fd5b50615cc580620000216000396000f3fe608060405234801561001057600080fd5b50600436106103985760003560e01c806390d6b45f116101e9578063b97c96551161010f578063c9eb4fbd116100ad578063d42562651161007c578063d425626514610814578063d547741f14610834578063f19264be14610847578063f4fa5d781461085a57600080fd5b8063c9eb4fbd146107c8578063ca15c873146107db578063cf09152f146107ee578063d1e001bf1461080157600080fd5b8063c02538f1116100e9578063c02538f11461077c578063c03a3c871461078f578063c2e7d5d6146107a2578063c9663237146107b557600080fd5b8063b97c965514610743578063bbecaa9214610756578063bdea01f51461076957600080fd5b806399c2720611610187578063a217fddf11610156578063a217fddf14610702578063a349ab2c1461070a578063a78b38471461071d578063a8f91f141461073057600080fd5b806399c27206146106c05780639a35678d146106d3578063a0a3fbd7146106dc578063a0dd2e97146106ef57600080fd5b8063936bf978116101c3578063936bf97814610674578063941b47eb1461068757806396480eb71461069a57806399ac4da5146106ad57600080fd5b806390d6b45f1461063b57806391a286d91461064e57806391d148541461066157600080fd5b806353256ece116102ce5780637b1b46f01161026c57806387a874f01161023b57806387a874f0146105ef5780638ff39099146106025780639010d07c146106155780639056244f1461062857600080fd5b80637b1b46f0146105a35780637febe048146105b657806380b88c08146105c957806384993806146105dc57600080fd5b8063646f44a5116102a8578063646f44a514610555578063647c47f614610568578063675539d91461057d5780637ac8fe231461059057600080fd5b806353256ece1461051c57806359a412e41461052f5780635e30b8a61461054257600080fd5b8063344dd6e41161033b578063408644ef11610315578063408644ef146104b557806343d51e46146104e35780634cf088d9146104f657806352a09ee41461050957600080fd5b8063344dd6e41461047c57806336568abe1461048f578063376749ab146104a257600080fd5b806314d38b721161037757806314d38b721461041057806315ee4df114610425578063248a9ca3146104385780632f2ff15d1461046957600080fd5b80627cec651461039d57806301ffc9a7146103cd578063113d33d7146103f0575b600080fd5b60cd546103b0906001600160a01b031681565b6040516001600160a01b0390911681526020015b60405180910390f35b6103e06103db366004614b4c565b610883565b60405190151581526020016103c4565b6104036103fe366004614b8b565b6108ae565b6040516103c49190614c3c565b61042361041e366004614b8b565b610a61565b005b6103b0610433366004614ce7565b610b1d565b61045b610446366004614d28565b60009081526065602052604090206001015490565b6040519081526020016103c4565b610423610477366004614d41565b610f9b565b61042361048a366004614d71565b610fc5565b61042361049d366004614d41565b6110af565b6104236104b0366004614e24565b61112d565b6103e06104c3366004614b8b565b6001600160a01b0316600090815260d26020526040902060030154151590565b6104236104f1366004614b8b565b6112e1565b60c9546103b0906001600160a01b031681565b610423610517366004614e78565b611390565b61042361052a366004614f19565b6114a3565b61042361053d366004614f5f565b61150f565b610423610550366004614f19565b6116ab565b60d1546103b0906001600160a01b031681565b61045b600080516020615c7083398151915281565b61042361058b366004614f19565b6118a6565b61042361059e366004614f95565b6118df565b6104236105b1366004614f95565b611b42565b6104236105c4366004614b8b565b611bd8565b6104236105d73660046150c0565b611be5565b6104236105ea366004614f95565b612741565b60cc546103b0906001600160a01b031681565b610423610610366004614b8b565b612786565b6103b061062336600461510f565b612828565b610423610636366004614e24565b612847565b60ca546103b0906001600160a01b031681565b61042361065c366004615143565b6128cc565b6103e061066f366004614d41565b612ae1565b610423610682366004614f95565b612b0c565b60cf546103b0906001600160a01b031681565b6104236106a8366004614b8b565b612f59565b6104236106bb366004614b8b565b612ffe565b6104236106ce366004614b8b565b6130ad565b61045b60d45481565b6103b06106ea366004614f95565b61314b565b6104236106fd3660046151ae565b613183565b61045b600081565b610423610718366004615228565b61326f565b60d0546103b0906001600160a01b031681565b61042361073e366004614d28565b613669565b610423610751366004614f19565b6136a9565b610423610764366004615280565b613728565b6104236107773660046152c0565b613c6d565b60ce546103b0906001600160a01b031681565b61042361079d3660046152ee565b613ccf565b6104236107b0366004614b8b565b613ea9565b60cb546103b0906001600160a01b031681565b6104236107d6366004614b8b565b613f58565b61045b6107e9366004614d28565b614007565b6104236107fc366004614b8b565b61401e565b61042361080f366004615341565b6140cd565b610827610822366004614b8b565b614230565b6040516103c49190615386565b610423610842366004614d41565b61428a565b610423610855366004614f19565b6142af565b61045b610868366004614b8b565b6001600160a01b0316600090815260d3602052604090205490565b60006001600160e01b03198216635a05180f60e01b14806108a857506108a8826142d1565b92915050565b6108d7604080516080810182526060808252602082015290810160008152602001600081525090565b6001600160a01b038216600090815260d260205260409081902081516080810190925280548290829061090990615394565b80601f016020809104026020016040519081016040528092919081815260200182805461093590615394565b80156109825780601f1061095757610100808354040283529160200191610982565b820191906000526020600020905b81548152906001019060200180831161096557829003601f168201915b5050505050815260200160018201805461099b90615394565b80601f01602080910402602001604051908101604052809291908181526020018280546109c790615394565b8015610a145780601f106109e957610100808354040283529160200191610a14565b820191906000526020600020905b8154815290600101906020018083116109f757829003601f168201915b5050509183525050600282015460209091019060ff166006811115610a3b57610a3b614c04565b6006811115610a4c57610a4c614c04565b81526020016003820154815250509050919050565b6000610a6c81614306565b6001600160a01b038216610ac75760405162461bcd60e51b815260206004820152601860248201527f696e76616c696420616c6c6f636174696f6e546f6b656e5f000000000000000060448201526064015b60405180910390fd5b60cf80546001600160a01b0319166001600160a01b0384169081179091556040519081527fcb80412fabfca7272dc6dca0c5530159d3329638c46c8c0a77376a480058828a906020015b60405180910390a15050565b60c954604051636f49712b60e01b81523360048201526000916001600160a01b031690636f49712b9060240160206040518083038186803b158015610b6157600080fd5b505afa158015610b75573d6000803e3d6000fd5b505050506040513d601f19601f82011682018060405250810190610b9991906153c9565b80610bb75750610bb7600080516020615c7083398151915233612ae1565b610bd35760405162461bcd60e51b8152600401610abe906153e6565b610bde600033612ae1565b80610bfc5750610bfc600080516020615c7083398151915233612ae1565b15610d545760cc5460cf5460405163448d932360e11b81526000926001600160a01b039081169263891b264692610c39923392169060040161540b565b602060405180830381600087803b158015610c5357600080fd5b505af1158015610c67573d6000803e3d6000fd5b505050506040513d601f19601f82011682018060405250810190610c8b9190615425565b6001600160a01b038116600090815260d260205260409020909150610cb1908585614ab3565b506001600160a01b038116600081815260d26020908152604080832060028101805460ff19166001908117909155426003909201919091553380855260d384528285208054928301815585529290932090920180546001600160a01b0319168417905590517f697eb6e241ee40220fc0d3c2623da1c8412fdb0a50d9dc90414859dafa57a4a591610d45918890889061546b565b60405180910390a290506108a8565b33600090815260d36020526040902054610da05760cc5460cf5460405163448d932360e11b81526000926001600160a01b039081169263891b264692610c39923392169060040161540b565b33600090815260d3602052604081208054610dbd906001906154af565b81548110610dcd57610dcd6154c6565b600091825260208083209091015460d4546001600160a01b0390911680845260d2909252604090922060030154909250610e0791906154dc565b4211610e475760405162461bcd60e51b815260206004820152600f60248201526e18dbdbdb191bdddb881c195c9a5bd9608a1b6044820152606401610abe565b60cc5460cf5460405163448d932360e11b81526000926001600160a01b039081169263891b264692610e7f923392169060040161540b565b602060405180830381600087803b158015610e9957600080fd5b505af1158015610ead573d6000803e3d6000fd5b505050506040513d601f19601f82011682018060405250810190610ed19190615425565b6001600160a01b038116600090815260d260205260409020909150610ef7908686614ab3565b506001600160a01b038116600081815260d26020908152604080832060028101805460ff19166001908117909155426003909201919091553380855260d384528285208054928301815585529290932090920180546001600160a01b0319168417905590517f697eb6e241ee40220fc0d3c2623da1c8412fdb0a50d9dc90414859dafa57a4a591610f8b918990899061546b565b60405180910390a2949350505050565b600082815260656020526040902060010154610fb681614306565b610fc08383614310565b505050565b6000610fd16001614332565b90508015610fe9576000805461ff0019166101001790555b610ff4600033614310565b61100c600080516020615c7083398151915233614310565b6110158a612786565b61101e896130ad565b61102784610a61565b611030886112e1565b61103987612ffe565b61104286613ea9565b61104b85612f59565b6110548361401e565b61105d82613669565b80156110a3576000805461ff0019169055604051600181527f7f26b83ff96e1f2b6a682f133852f6798a09c465da95921460cefb38474024989060200160405180910390a15b50505050505050505050565b6001600160a01b038116331461111f5760405162461bcd60e51b815260206004820152602f60248201527f416363657373436f6e74726f6c3a2063616e206f6e6c792072656e6f756e636560448201526e103937b632b9903337b91039b2b63360891b6064820152608401610abe565b61112982826143ba565b5050565b600080516020615c7083398151915261114581614306565b836001600160a01b03166395993c166040518163ffffffff1660e01b815260040160206040518083038186803b15801561117e57600080fd5b505afa158015611192573d6000803e3d6000fd5b505050506040513d601f19601f820116820180604052508101906111b691906153c9565b6111f75760405162461bcd60e51b81526020600482015260126024820152711919585b081b9bdd08199a5b985b1a5e995960721b6044820152606401610abe565b6001600160a01b038416600090815260d26020526040902061121d906001018484614ab3565b50836001600160a01b0316635e6f60456040518163ffffffff1660e01b815260040160206040518083038186803b15801561125757600080fd5b505afa15801561126b573d6000803e3d6000fd5b505050506040513d601f19601f8201168201806040525081019061128f9190615425565b6001600160a01b0316846001600160a01b03167f7c7c1e3ca3d197d7c713bbb60f1430de4cc325c74cdfc03d5523ad23c5a2c31285856040516112d39291906154f4565b60405180910390a350505050565b60006112ec81614306565b6001600160a01b0382166113425760405162461bcd60e51b815260206004820152601b60248201527f696e76616c69642070726f6a6563744e657374466163746f72795f00000000006044820152606401610abe565b60cc80546001600160a01b0319166001600160a01b0384169081179091556040519081527fe1732ef2ebd68cc1e4e0c15b9bb8f3ad612d8a93961aea1320f90878c9a1bea690602001610b11565b600080516020615c708339815191526113a881614306565b6113b3866006613728565b60d154604051639160aadb60e01b81526001600160a01b03888116600483015287811660248301526044820187905290911690639160aadb90606401602060405180830381600087803b15801561140957600080fd5b505af115801561141d573d6000803e3d6000fd5b505050506040513d601f19601f820116820180604052508101906114419190615425565b5060d15460405162e20a4b60e11b81526001600160a01b03909116906301c414969061147590899087908790600401615510565b600060405180830381600087803b15801561148f57600080fd5b505af11580156110a3573d6000803e3d6000fd5b60006114ae81614306565b604051635d7efa7160e11b81526001600160a01b03838116600483015284169063bafdf4e2906024015b600060405180830381600087803b1580156114f257600080fd5b505af1158015611506573d6000803e3d6000fd5b50505050505050565b600080516020615c7083398151915261152781614306565b826006806001600160a01b038316600090815260d2602052604090206002015460ff16600681111561155b5761155b614c04565b146115785760405162461bcd60e51b8152600401610abe90615567565b846001600160a01b0316635e6f60456040518163ffffffff1660e01b815260040160206040518083038186803b1580156115b157600080fd5b505afa1580156115c5573d6000803e3d6000fd5b505050506040513d601f19601f820116820180604052508101906115e99190615425565b6001600160a01b0316634e48844c856040518263ffffffff1660e01b8152600401611614919061559e565b600060405180830381600087803b15801561162e57600080fd5b505af1158015611642573d6000803e3d6000fd5b505060405163174238c760e31b81526001600160a01b038816925063ba11c638915061167290879060040161559e565b600060405180830381600087803b15801561168c57600080fd5b505af11580156116a0573d6000803e3d6000fd5b505050505050505050565b816005806001600160a01b038316600090815260d2602052604090206002015460ff1660068111156116df576116df614c04565b146116fc5760405162461bcd60e51b8152600401610abe90615567565b6040516309222a8b60e11b81526001600160a01b0384811660048301526000919086169063124455169060240160206040518083038186803b15801561174157600080fd5b505afa158015611755573d6000803e3d6000fd5b505050506040513d601f19601f8201168201806040525081019061177991906155e1565b905080156117e457604051630ceeefb160e31b81526001600160a01b038581166004830152602482018390528616906367777d8890604401600060405180830381600087803b1580156117cb57600080fd5b505af11580156117df573d6000803e3d6000fd5b505050505b604051637eaa459f60e11b81526001600160a01b0385811660048301526000919087169063fd548b3e9060240160206040518083038186803b15801561182957600080fd5b505afa15801561183d573d6000803e3d6000fd5b505050506040513d601f19601f8201168201806040525081019061186191906155e1565b9050801561189e57604051633caff2e560e21b81526001600160a01b0386811660048301526024820183905287169063f2bfcb9490604401611475565b505050505050565b60006118b181614306565b6040516304f3e57f60e31b81526001600160a01b03838116600483015284169063279f2bf8906024016114d8565b60c954604051636f49712b60e01b81523360048201526001600160a01b0390911690636f49712b9060240160206040518083038186803b15801561192257600080fd5b505afa158015611936573d6000803e3d6000fd5b505050506040513d601f19601f8201168201806040525081019061195a91906153c9565b806119785750611978600080516020615c7083398151915233612ae1565b6119945760405162461bcd60e51b8152600401610abe906153e6565b816002806001600160a01b038316600090815260d2602052604090206002015460ff1660068111156119c8576119c8614c04565b146119e55760405162461bcd60e51b8152600401610abe90615567565b6001600160a01b038416600090815260d26020526040902060030154611a1d5760405162461bcd60e51b8152600401610abe906155fa565b6040516309222a8b60e11b815233600482015283906001600160a01b0386169063124455169060240160206040518083038186803b158015611a5e57600080fd5b505afa158015611a72573d6000803e3d6000fd5b505050506040513d601f19601f82011682018060405250810190611a9691906155e1565b1015611adb5760405162461bcd60e51b81526020600482015260146024820152733a37b79039b6b0b6361030b63637b1b0ba34b7b760611b6044820152606401610abe565b604051637ac8fe2360e01b8152336004820152602481018490526001600160a01b03851690637ac8fe23906044015b600060405180830381600087803b158015611b2457600080fd5b505af1158015611b38573d6000803e3d6000fd5b5050505050505050565b600080516020615c70833981519152611b5a81614306565b826004806001600160a01b038316600090815260d2602052604090206002015460ff166006811115611b8e57611b8e614c04565b14611bab5760405162461bcd60e51b8152600401610abe90615567565b6040516387f8198f60e01b8152600481018590526001600160a01b038616906387f8198f90602401611672565b611be281336143dc565b50565b816004806001600160a01b038316600090815260d2602052604090206002015460ff166006811115611c1957611c19614c04565b14611c365760405162461bcd60e51b8152600401610abe90615567565b600084905060006040518060600160405280836001600160a01b031663f00e8bc26040518163ffffffff1660e01b815260040160206040518083038186803b158015611c8157600080fd5b505afa158015611c95573d6000803e3d6000fd5b505050506040513d601f19601f82011682018060405250810190611cb9919061562a565b6002811115611cca57611cca614c04565b8152602001836001600160a01b031663a1c8209f6040518163ffffffff1660e01b815260040160206040518083038186803b158015611d0857600080fd5b505afa158015611d1c573d6000803e3d6000fd5b505050506040513d601f19601f82011682018060405250810190611d4091906155e1565b8152602001836001600160a01b0316639d76ea586040518163ffffffff1660e01b815260040160206040518083038186803b158015611d7e57600080fd5b505afa158015611d92573d6000803e3d6000fd5b505050506040513d601f19601f82011682018060405250810190611db69190615425565b6001600160a01b031690526020810151909150611e0d5760405162461bcd60e51b81526020600482015260156024820152741e995c9bc8199a5b985b081a5b9d995cdd1b595b9d605a1b6044820152606401610abe565b600081516002811115611e2257611e22614c04565b1415611e625760405162461bcd60e51b815260206004820152600f60248201526e1d995cdd1a5b99c81b9bdd081cd95d608a1b6044820152606401610abe565b60cb546040516333b12f3b60e11b81526001600160a01b03909116906367625e7690611e94908990339060040161540b565b60206040518083038186803b158015611eac57600080fd5b505afa158015611ec0573d6000803e3d6000fd5b505050506040513d601f19601f82011682018060405250810190611ee491906153c9565b611f4f5760cb5460405163ee1fcec160e01b81526001600160a01b039091169063ee1fcec190611f1c90899033908a9060040161564b565b600060405180830381600087803b158015611f3657600080fd5b505af1158015611f4a573d6000803e3d6000fd5b505050505b6000826001600160a01b031663f46b4b9c6040518163ffffffff1660e01b815260040160206040518083038186803b158015611f8a57600080fd5b505afa158015611f9e573d6000803e3d6000fd5b505050506040513d601f19601f82011682018060405250810190611fc29190615425565b90506000836001600160a01b0316635bf9d5476040518163ffffffff1660e01b815260040160206040518083038186803b158015611fff57600080fd5b505afa158015612013573d6000803e3d6000fd5b505050506040513d601f19601f820116820180604052508101906120379190615425565b9050600060405180606001604052808a6001600160a01b0316815260200185604001516001600160a01b03168152602001866001600160a01b031663663a0ebb6040518163ffffffff1660e01b815260040160206040518083038186803b1580156120a157600080fd5b505afa1580156120b5573d6000803e3d6000fd5b505050506040513d601f19601f820116820180604052508101906120d991906155e1565b9052905060006001855160028111156120f4576120f4614c04565b14156122ad5760cd5460405163e96e5dab60e01b81526001600160a01b038089169263e96e5dab9261212c923392169060040161540b565b600060405180830381600087803b15801561214657600080fd5b505af115801561215a573d6000803e3d6000fd5b505050506000866001600160a01b0316634df507956040518163ffffffff1660e01b815260040160c06040518083038186803b15801561219957600080fd5b505afa1580156121ad573d6000803e3d6000fd5b505050506040513d601f19601f820116820180604052508101906121d19190615677565b905060cd60009054906101000a90046001600160a01b03166001600160a01b0316633d5f360384838e6040518463ffffffff1660e01b8152600401612218939291906156f0565b602060405180830381600087803b15801561223257600080fd5b505af1158015612246573d6000803e3d6000fd5b505050506040513d601f19601f8201168201806040525081019061226a9190615425565b91507f043fff1440519302a54c3a58ccaf6aa02c71e7f2665774816a99549ef07fd3e88b838360405161229f93929190615777565b60405180910390a15061248b565b6002855160028111156122c2576122c2614c04565b141561248b5760ce5460405163e96e5dab60e01b81526001600160a01b038089169263e96e5dab926122fa923392169060040161540b565b600060405180830381600087803b15801561231457600080fd5b505af1158015612328573d6000803e3d6000fd5b505050506000866001600160a01b031663c6a01abd6040518163ffffffff1660e01b815260040160006040518083038186803b15801561236757600080fd5b505afa15801561237b573d6000803e3d6000fd5b505050506040513d6000823e601f3d908101601f191682016040526123a391908101906157d2565b905060ce60009054906101000a90046001600160a01b03166001600160a01b0316635c26e5f384838e6040518463ffffffff1660e01b81526004016123ea9392919061592b565b602060405180830381600087803b15801561240457600080fd5b505af1158015612418573d6000803e3d6000fd5b505050506040513d601f19601f8201168201806040525081019061243c9190615425565b91507ff3d4707d08a1c19f30fa2d4336a8a0c1637ad3bea2766b3df244d602a3f618d18b8383600001518460400151856020015160405161248195949392919061599f565b60405180910390a1505b604051631bdbfcef60e21b81526001600160a01b038281166004830152871690636f6ff3bc90602401600060405180830381600087803b1580156124ce57600080fd5b505af11580156124e2573d6000803e3d6000fd5b505050506000816001600160a01b031663b9d69bf46040518163ffffffff1660e01b815260040160206040518083038186803b15801561252157600080fd5b505afa158015612535573d6000803e3d6000fd5b505050506040513d601f19601f820116820180604052508101906125599190615425565b9050836001600160a01b031663647dcac68c83846001600160a01b031663c4e1ada16040518163ffffffff1660e01b815260040160206040518083038186803b1580156125a557600080fd5b505afa1580156125b9573d6000803e3d6000fd5b505050506040513d601f19601f820116820180604052508101906125dd9190615425565b856001600160a01b03166318160ddd6040518163ffffffff1660e01b815260040160206040518083038186803b15801561261657600080fd5b505afa15801561262a573d6000803e3d6000fd5b505050506040513d601f19601f8201168201806040525081019061264e91906155e1565b6040516001600160e01b031960e087901b1681526001600160a01b0394851660048201529284166024840152921660448201526064810191909152608401600060405180830381600087803b1580156126a657600080fd5b505af11580156126ba573d6000803e3d6000fd5b505050506020860151604051631d9dc2a760e21b81526001600160a01b038d81166004830181905233602484015260448301526064820192909252908616906376770a9c90608401600060405180830381600087803b15801561271c57600080fd5b505af1158015612730573d6000803e3d6000fd5b505050505050505050505050505050565b600080516020615c7083398151915261275981614306565b604051634559ff9b60e01b8152600481018390526001600160a01b03841690634559ff9b906024016114d8565b600061279181614306565b6001600160a01b0382166127da5760405162461bcd60e51b815260206004820152601060248201526f696e76616c6964207374616b696e675f60801b6044820152606401610abe565b60c980546001600160a01b0319166001600160a01b0384169081179091556040519081527ff520447191196b125f76f7110397fdf32b1b9cefb7dec323bd3b998022ac233890602001610b11565b6000828152609760205260408120612840908361451b565b9392505050565b600080516020615c7083398151915261285f81614306565b6001600160a01b038416600090815260d260205260409020612882908484614ab3565b50836001600160a01b03167f9fbf3aaaeb66a7ec4f3f7f72cc64a2c1eb6a8ccdb1de22f41fdce1e08a928e1684846040516128be9291906154f4565b60405180910390a250505050565b600080516020615c708339815191526128e481614306565b846004806001600160a01b038316600090815260d2602052604090206002015460ff16600681111561291857612918614c04565b146129355760405162461bcd60e51b8152600401610abe90615567565b604051635a4ba85d60e11b81526001600160a01b0387811660048301526024820187905288169063b49750ba90604401600060405180830381600087803b15801561297f57600080fd5b505af1158015612993573d6000803e3d6000fd5b5050505060ce60009054906101000a90046001600160a01b03166001600160a01b0316632dbd1e4085896001600160a01b031663663a0ebb6040518163ffffffff1660e01b815260040160206040518083038186803b1580156129f557600080fd5b505afa158015612a09573d6000803e3d6000fd5b505050506040513d601f19601f82011682018060405250810190612a2d91906155e1565b6040518363ffffffff1660e01b8152600401612a4a929190615a81565b60006040518083038186803b158015612a6257600080fd5b505afa158015612a76573d6000803e3d6000fd5b5050604051636a9939f560e01b81526001600160a01b038a169250636a9939f59150612aa6908790600401615aa3565b600060405180830381600087803b158015612ac057600080fd5b505af1158015612ad4573d6000803e3d6000fd5b5050505050505050505050565b60009182526065602090815260408084206001600160a01b0393909316845291905290205460ff1690565b60c954604051636f49712b60e01b81523360048201526001600160a01b0390911690636f49712b9060240160206040518083038186803b158015612b4f57600080fd5b505afa158015612b63573d6000803e3d6000fd5b505050506040513d601f19601f82011682018060405250810190612b8791906153c9565b80612ba55750612ba5600080516020615c7083398151915233612ae1565b612bc15760405162461bcd60e51b8152600401610abe906153e6565b60ca54604051630a200e5d60e41b81523360048201526001600160a01b039091169063a200e5d09060240160206040518083038186803b158015612c0457600080fd5b505afa158015612c18573d6000803e3d6000fd5b505050506040513d601f19601f82011682018060405250810190612c3c91906153c9565b612c765760405162461bcd60e51b815260206004820152600b60248201526a4b5943206d697373696e6760a81b6044820152606401610abe565b6001600160a01b038216600090815260d26020526040902060030154612cae5760405162461bcd60e51b8152600401610abe906155fa565b60036001600160a01b038316600090815260d2602052604090206002015460ff166006811115612ce057612ce0614c04565b1415612db2576040516309222a8b60e11b81523360048201526000906001600160a01b0384169063124455169060240160206040518083038186803b158015612d2857600080fd5b505afa158015612d3c573d6000803e3d6000fd5b505050506040513d601f19601f82011682018060405250810190612d6091906155e1565b11612dad5760405162461bcd60e51b815260206004820152601b60248201527f6d697373696e67206465616c666c6f7720616c6c6f636174696f6e00000000006044820152606401610abe565b612e01565b60026001600160a01b038316600090815260d2602052604090206002015460ff166006811115612de457612de4614c04565b14612e015760405162461bcd60e51b8152600401610abe90615567565b60cf546040516309222a8b60e11b815233600482018190526001600160a01b0392831692635b48f99c92869186919083169063124455169060240160206040518083038186803b158015612e5457600080fd5b505afa158015612e68573d6000803e3d6000fd5b505050506040513d601f19601f82011682018060405250810190612e8c91906155e1565b612e9691906154dc565b6040516001600160e01b031960e086901b1681526001600160a01b0393841660048201529290911660248301526044820152606401600060405180830381600087803b158015612ee557600080fd5b505af1158015612ef9573d6000803e3d6000fd5b505060405163126d7f2f60e31b8152336004820152602481018490526001600160a01b038516925063936bf9789150604401600060405180830381600087803b158015612f4557600080fd5b505af115801561189e573d6000803e3d6000fd5b6000612f6481614306565b6001600160a01b038216612fb05760405162461bcd60e51b8152602060048201526013602482015272696e76616c6964206465616c5369676e65725f60681b6044820152606401610abe565b60cb80546001600160a01b0319166001600160a01b0384169081179091556040519081527f565b220bb44bb500764d52879fdeb8d32f3664bce62e5ff1b468a01d930c244290602001610b11565b600061300981614306565b6001600160a01b03821661305f5760405162461bcd60e51b815260206004820152601d60248201527f696e76616c6964206c696e65617256657374696e67466163746f72795f0000006044820152606401610abe565b60cd80546001600160a01b0319166001600160a01b0384169081179091556040519081527fd94de0944f6ec977931c10b9f409a532bfc5bf3e1e59c7ace05ae5efdea4ce2390602001610b11565b60006130b881614306565b6001600160a01b0382166130fd5760405162461bcd60e51b815260206004820152600c60248201526b696e76616c6964206b79635f60a01b6044820152606401610abe565b60ca80546001600160a01b0319166001600160a01b0384169081179091556040519081527f8cbd04479c5ca0247c795be0a24e4682748f2dd2826230aa9bef0e1d9d35022190602001610b11565b60d3602052816000526040600020818154811061316757600080fd5b6000918252602090912001546001600160a01b03169150829050565b600080516020615c7083398151915261319b81614306565b876002806001600160a01b038316600090815260d2602052604090206002015460ff1660068111156131cf576131cf614c04565b146131ec5760405162461bcd60e51b8152600401610abe90615567565b604080518082018252868152602081018690529051633221d60760e01b81526001600160a01b038c1691633221d60791613231918d918d918d918d9190600401615ab6565b600060405180830381600087803b15801561324b57600080fd5b505af115801561325f573d6000803e3d6000fd5b5050505050505050505050505050565b60c954604051636f49712b60e01b81523360048201526001600160a01b0390911690636f49712b9060240160206040518083038186803b1580156132b257600080fd5b505afa1580156132c6573d6000803e3d6000fd5b505050506040513d601f19601f820116820180604052508101906132ea91906153c9565b806133085750613308600080516020615c7083398151915233612ae1565b6133245760405162461bcd60e51b8152600401610abe906153e6565b60ca54604051630a200e5d60e41b81523360048201526001600160a01b039091169063a200e5d09060240160206040518083038186803b15801561336757600080fd5b505afa15801561337b573d6000803e3d6000fd5b505050506040513d601f19601f8201168201806040525081019061339f91906153c9565b6133d95760405162461bcd60e51b815260206004820152600b60248201526a4b5943206d697373696e6760a81b6044820152606401610abe565b826003806001600160a01b038316600090815260d2602052604090206002015460ff16600681111561340d5761340d614c04565b1461342a5760405162461bcd60e51b8152600401610abe90615567565b60d0546001600160a01b03166134825760405162461bcd60e51b815260206004820152601760248201527f616e616c797369734d616e61676572206e6f74207365740000000000000000006044820152606401610abe565b60d05460405163644c205d60e01b81526001600160a01b039091169063644c205d906134b4903390899060040161540b565b60206040518083038186803b1580156134cc57600080fd5b505afa1580156134e0573d6000803e3d6000fd5b505050506040513d601f19601f8201168201806040525081019061350491906153c9565b6135495760405162461bcd60e51b8152602060048201526016602482015275185b985b1e5cda5cc81b9bdd081cdd589b5a5d1d195960521b6044820152606401610abe565b60cb5460405163c30f7e6960e01b81526001600160a01b039091169063c30f7e699061357b908890339060040161540b565b60206040518083038186803b15801561359357600080fd5b505afa1580156135a7573d6000803e3d6000fd5b505050506040513d601f19601f820116820180604052508101906135cb91906153c9565b6136365760cb54604051631cc9acd360e01b81526001600160a01b0390911690631cc9acd3906136039088903390889060040161564b565b600060405180830381600087803b15801561361d57600080fd5b505af1158015613631573d6000803e3d6000fd5b505050505b604051631ec457f560e31b8152336004820152602481018590526001600160a01b0386169063f622bfa890604401611672565b600061367481614306565b60d48290556040518281527f7799d9a0a8cd328d8540ff99e5ddf99aad5047c11e6c6df66e8598835d92586190602001610b11565b816006806001600160a01b038316600090815260d2602052604090206002015460ff1660068111156136dd576136dd614c04565b146136fa5760405162461bcd60e51b8152600401610abe90615567565b604051633f7e42b760e01b81526001600160a01b038481166004830152851690633f7e42b790602401611b0a565b600080516020615c7083398151915261374081614306565b6001600160a01b038316600090815260d260205260408120600201548491849160ff16600181600681111561377757613777614c04565b14156137c157600083600681111561379157613791614c04565b141561379c57600191505b60025b8360068111156137b1576137b1614c04565b14156137bc57600191505b613899565b60028160068111156137d5576137d5614c04565b14156138015760058360068111156137ef576137ef614c04565b14156137fa57600191505b600361379f565b600381600681111561381557613815614c04565b141561384157600583600681111561382f5761382f614c04565b141561383a57600191505b600461379f565b600481600681111561385557613855614c04565b141561389957600583600681111561386f5761386f614c04565b141561387a57600191505b600683600681111561388e5761388e614c04565b141561389957600191505b816138d95760405162461bcd60e51b815260206004820152601060248201526f77726f6e6720706861736520666c6f7760801b6044820152606401610abe565b60038660068111156138ed576138ed614c04565b14156139a057866001600160a01b031663fcfff16f6040518163ffffffff1660e01b815260040160206040518083038186803b15801561392c57600080fd5b505afa158015613940573d6000803e3d6000fd5b505050506040513d601f19601f8201168201806040525081019061396491906153c9565b6139a05760405162461bcd60e51b815260206004820152600d60248201526c1b9bdd081bdc195b881b995cdd609a1b6044820152606401610abe565b60048660068111156139b4576139b4614c04565b14156139c3576139c387614527565b60068660068111156139d7576139d7614c04565b1415613a9857866001600160a01b03166395993c166040518163ffffffff1660e01b815260040160206040518083038186803b158015613a1657600080fd5b505afa158015613a2a573d6000803e3d6000fd5b505050506040513d601f19601f82011682018060405250810190613a4e91906153c9565b613a8f5760405162461bcd60e51b81526020600482015260126024820152711919585b081b9bdd08199a5b985b1a5e995960721b6044820152606401610abe565b613a988761457d565b6005866006811115613aac57613aac614c04565b1415613be657866001600160a01b031663a1c8209f6040518163ffffffff1660e01b815260040160206040518083038186803b158015613aeb57600080fd5b505afa158015613aff573d6000803e3d6000fd5b505050506040513d601f19601f82011682018060405250810190613b2391906155e1565b15613b675760405162461bcd60e51b8152602060048201526014602482015273199a5b985b081a5b9d995cdd1b595b9d081cd95d60621b6044820152606401610abe565b866001600160a01b031663fcfff16f6040518163ffffffff1660e01b815260040160206040518083038186803b158015613ba057600080fd5b505afa158015613bb4573d6000803e3d6000fd5b505050506040513d601f19601f82011682018060405250810190613bd891906153c9565b15613be657613be687614527565b6001600160a01b038716600090815260d260205260409020600201805487919060ff19166001836006811115613c1e57613c1e614c04565b0217905550866001600160a01b03167f9b0bd330aec7c097ad9c3c4b6a902e705034267818514419721456488ea515b087604051613c5c9190615386565b60405180910390a250505050505050565b600080516020615c70833981519152613c8581614306565b826001600160a01b03167f83669d280a0b81ad524069925065975a626210384555e22276bd938a7cdfb5f983604051613cc2911515815260200190565b60405180910390a2505050565b600080516020615c70833981519152613ce781614306565b846004806001600160a01b038316600090815260d2602052604090206002015460ff166006811115613d1b57613d1b614c04565b14613d385760405162461bcd60e51b8152600401610abe90615567565b604051635a4ba85d60e11b81526001600160a01b0387811660048301526024820187905288169063b49750ba90604401600060405180830381600087803b158015613d8257600080fd5b505af1158015613d96573d6000803e3d6000fd5b5050505060cd60009054906101000a90046001600160a01b03166001600160a01b0316631f47329785896001600160a01b031663663a0ebb6040518163ffffffff1660e01b815260040160206040518083038186803b158015613df857600080fd5b505afa158015613e0c573d6000803e3d6000fd5b505050506040513d601f19601f82011682018060405250810190613e3091906155e1565b6040518363ffffffff1660e01b8152600401613e4d929190615afd565b60006040518083038186803b158015613e6557600080fd5b505afa158015613e79573d6000803e3d6000fd5b505060405163174238c760e31b81526001600160a01b038a16925063ba11c6389150612aa690879060040161559e565b6000613eb481614306565b6001600160a01b038216613f0a5760405162461bcd60e51b815260206004820152601f60248201527f696e76616c696420646973637265746556657374696e67466163746f72795f006044820152606401610abe565b60ce80546001600160a01b0319166001600160a01b0384169081179091556040519081527fb53e3d20f8d0f41dde53ac8214c1012ac4c2e62b2641da5d9ccfb7b3d0cc1ac890602001610b11565b6000613f6381614306565b6001600160a01b038216613fb95760405162461bcd60e51b815260206004820152601860248201527f696e76616c696420616e616c797369734d616e616765725f00000000000000006044820152606401610abe565b60d080546001600160a01b0319166001600160a01b0384169081179091556040519081527f2e0e73690d5b8f3315ed487a628639d40478e37e27cfe343371373056faa80e190602001610b11565b60008181526097602052604081206108a890614627565b600061402981614306565b6001600160a01b03821661407f5760405162461bcd60e51b815260206004820152601e60248201527f696e76616c69642065786368616e6765426f6f737452656769737472795f00006044820152606401610abe565b60d180546001600160a01b0319166001600160a01b0384169081179091556040519081527fb04c3392b67097f65d72543f5b9e9b2c7e5063e6146892eea2a966ea9511b22f90602001610b11565b600080516020615c708339815191526140e581614306565b826006806001600160a01b038316600090815260d2602052604090206002015460ff16600681111561411957614119614c04565b146141365760405162461bcd60e51b8152600401610abe90615567565b846001600160a01b0316635e6f60456040518163ffffffff1660e01b815260040160206040518083038186803b15801561416f57600080fd5b505afa158015614183573d6000803e3d6000fd5b505050506040513d601f19601f820116820180604052508101906141a79190615425565b6001600160a01b0316634229b4a6856040518263ffffffff1660e01b81526004016141d29190615aa3565b600060405180830381600087803b1580156141ec57600080fd5b505af1158015614200573d6000803e3d6000fd5b5050604051636a9939f560e01b81526001600160a01b0388169250636a9939f59150611672908790600401615aa3565b6001600160a01b038116600090815260d260205260408120600301546142685760405162461bcd60e51b8152600401610abe906155fa565b506001600160a01b0316600090815260d2602052604090206002015460ff1690565b6000828152606560205260409020600101546142a581614306565b610fc083836143ba565b600080516020615c708339815191526142c781614306565b610fc083836143dc565b60006001600160e01b03198216637965db0b60e01b14806108a857506301ffc9a760e01b6001600160e01b03198316146108a8565b611be28133614631565b61431a8282614695565b6000828152609760205260409020610fc0908261471b565b60008054610100900460ff1615614379578160ff1660011480156143555750303b155b6143715760405162461bcd60e51b8152600401610abe90615b4d565b506000919050565b60005460ff8084169116106143a05760405162461bcd60e51b8152600401610abe90615b4d565b506000805460ff191660ff92909216919091179055600190565b6143c48282614730565b6000828152609760205260409020610fc09082614797565b60046001600160a01b038316600090815260d2602052604090206002015460ff16600681111561440e5761440e614c04565b1480614449575060066001600160a01b038316600090815260d2602052604090206002015460ff16600681111561444757614447614c04565b145b6144655760405162461bcd60e51b8152600401610abe90615567565b6040516309222a8b60e11b81526001600160a01b0382811660048301526000919084169063124455169060240160206040518083038186803b1580156144aa57600080fd5b505afa1580156144be573d6000803e3d6000fd5b505050506040513d601f19601f820116820180604052508101906144e291906155e1565b60405163427a001360e01b81526001600160a01b038481166004830152602482018390529192509084169063427a0013906044016114d8565b600061284083836147ac565b806001600160a01b0316631851a9946040518163ffffffff1660e01b8152600401600060405180830381600087803b15801561456257600080fd5b505af1158015614576573d6000803e3d6000fd5b5050505050565b60008190506000816001600160a01b0316635bf9d5476040518163ffffffff1660e01b815260040160206040518083038186803b1580156145bd57600080fd5b505afa1580156145d1573d6000803e3d6000fd5b505050506040513d601f19601f820116820180604052508101906145f59190615425565b604051633efff90d60e21b81526001600160a01b0385811660048301529192509082169063fbffe434906024016114d8565b60006108a8825490565b61463b8282612ae1565b61112957614653816001600160a01b031660146147d6565b61465e8360206147d6565b60405160200161466f929190615b9b565b60408051601f198184030181529082905262461bcd60e51b8252610abe91600401615c10565b61469f8282612ae1565b6111295760008281526065602090815260408083206001600160a01b03851684529091529020805460ff191660011790556146d73390565b6001600160a01b0316816001600160a01b0316837f2f8788117e7eff1d82e926ec794901d17c78024a50270940304540a733656f0d60405160405180910390a45050565b6000612840836001600160a01b038416614971565b61473a8282612ae1565b156111295760008281526065602090815260408083206001600160a01b0385168085529252808320805460ff1916905551339285917ff6391f5c32d9c69d2a47ea670b442974b53935d1edc7fd64eb21e047a839171b9190a45050565b6000612840836001600160a01b0384166149c0565b60008260000182815481106147c3576147c36154c6565b9060005260206000200154905092915050565b606060006147e5836002615c23565b6147f09060026154dc565b6001600160401b0381111561480757614807614fc1565b6040519080825280601f01601f191660200182016040528015614831576020820181803683370190505b509050600360fc1b8160008151811061484c5761484c6154c6565b60200101906001600160f81b031916908160001a905350600f60fb1b8160018151811061487b5761487b6154c6565b60200101906001600160f81b031916908160001a905350600061489f846002615c23565b6148aa9060016154dc565b90505b6001811115614922576f181899199a1a9b1b9c1cb0b131b232b360811b85600f16601081106148de576148de6154c6565b1a60f81b8282815181106148f4576148f46154c6565b60200101906001600160f81b031916908160001a90535060049490941c9361491b81615c42565b90506148ad565b5083156128405760405162461bcd60e51b815260206004820181905260248201527f537472696e67733a20686578206c656e67746820696e73756666696369656e746044820152606401610abe565b60008181526001830160205260408120546149b8575081546001818101845560008481526020808220909301849055845484825282860190935260409020919091556108a8565b5060006108a8565b60008181526001830160205260408120548015614aa95760006149e46001836154af565b85549091506000906149f8906001906154af565b9050818114614a5d576000866000018281548110614a1857614a186154c6565b9060005260206000200154905080876000018481548110614a3b57614a3b6154c6565b6000918252602080832090910192909255918252600188019052604090208390555b8554869080614a6e57614a6e615c59565b6001900381819060005260206000200160009055905585600101600086815260200190815260200160002060009055600193505050506108a8565b60009150506108a8565b828054614abf90615394565b90600052602060002090601f016020900481019282614ae15760008555614b27565b82601f10614afa5782800160ff19823516178555614b27565b82800160010185558215614b27579182015b82811115614b27578235825591602001919060010190614b0c565b50614b33929150614b37565b5090565b5b80821115614b335760008155600101614b38565b600060208284031215614b5e57600080fd5b81356001600160e01b03198116811461284057600080fd5b6001600160a01b0381168114611be257600080fd5b600060208284031215614b9d57600080fd5b813561284081614b76565b60005b83811015614bc3578181015183820152602001614bab565b83811115614bd2576000848401525b50505050565b60008151808452614bf0816020860160208601614ba8565b601f01601f19169290920160200192915050565b634e487b7160e01b600052602160045260246000fd5b60078110614c3857634e487b7160e01b600052602160045260246000fd5b9052565b602081526000825160806020840152614c5860a0840182614bd8565b90506020840151601f19848303016040850152614c758282614bd8565b9150506040840151614c8a6060850182614c1a565b50606084015160808401528091505092915050565b60008083601f840112614cb157600080fd5b5081356001600160401b03811115614cc857600080fd5b602083019150836020828501011115614ce057600080fd5b9250929050565b60008060208385031215614cfa57600080fd5b82356001600160401b03811115614d1057600080fd5b614d1c85828601614c9f565b90969095509350505050565b600060208284031215614d3a57600080fd5b5035919050565b60008060408385031215614d5457600080fd5b823591506020830135614d6681614b76565b809150509250929050565b60008060008060008060008060006101208a8c031215614d9057600080fd5b8935614d9b81614b76565b985060208a0135614dab81614b76565b975060408a0135614dbb81614b76565b965060608a0135614dcb81614b76565b955060808a0135614ddb81614b76565b945060a08a0135614deb81614b76565b935060c08a0135614dfb81614b76565b925060e08a0135614e0b81614b76565b809250506101008a013590509295985092959850929598565b600080600060408486031215614e3957600080fd5b8335614e4481614b76565b925060208401356001600160401b03811115614e5f57600080fd5b614e6b86828701614c9f565b9497909650939450505050565b600080600080600060808688031215614e9057600080fd5b8535614e9b81614b76565b94506020860135614eab81614b76565b93506040860135925060608601356001600160401b0380821115614ece57600080fd5b818801915088601f830112614ee257600080fd5b813581811115614ef157600080fd5b8960208260061b8501011115614f0657600080fd5b9699959850939650602001949392505050565b60008060408385031215614f2c57600080fd5b8235614f3781614b76565b91506020830135614d6681614b76565b600060c08284031215614f5957600080fd5b50919050565b60008060e08385031215614f7257600080fd5b8235614f7d81614b76565b9150614f8c8460208501614f47565b90509250929050565b60008060408385031215614fa857600080fd5b8235614fb381614b76565b946020939093013593505050565b634e487b7160e01b600052604160045260246000fd5b604051606081016001600160401b0381118282101715614ff957614ff9614fc1565b60405290565b604080519081016001600160401b0381118282101715614ff957614ff9614fc1565b604051601f8201601f191681016001600160401b038111828210171561504957615049614fc1565b604052919050565b600082601f83011261506257600080fd5b81356001600160401b0381111561507b5761507b614fc1565b61508e601f8201601f1916602001615021565b8181528460208386010111156150a357600080fd5b816020850160208301376000918101602001919091529392505050565b600080604083850312156150d357600080fd5b82356150de81614b76565b915060208301356001600160401b038111156150f957600080fd5b61510585828601615051565b9150509250929050565b6000806040838503121561512257600080fd5b50508035926020909101359150565b600060608284031215614f5957600080fd5b6000806000806080858703121561515957600080fd5b843561516481614b76565b9350602085013561517481614b76565b92506040850135915060608501356001600160401b0381111561519657600080fd5b6151a287828801615131565b91505092959194509250565b600080600080600080600060e0888a0312156151c957600080fd5b87356151d481614b76565b96506020880135955060408801356151eb81614b76565b945060608801356151fb81614b76565b9350608088013561520b81614b76565b9699959850939692959460a0840135945060c09093013592915050565b60008060006060848603121561523d57600080fd5b833561524881614b76565b92506020840135915060408401356001600160401b0381111561526a57600080fd5b61527686828701615051565b9150509250925092565b6000806040838503121561529357600080fd5b823561529e81614b76565b9150602083013560078110614d6657600080fd5b8015158114611be257600080fd5b600080604083850312156152d357600080fd5b82356152de81614b76565b91506020830135614d66816152b2565b600080600080610120858703121561530557600080fd5b843561531081614b76565b9350602085013561532081614b76565b9250604085013591506153368660608701614f47565b905092959194509250565b6000806040838503121561535457600080fd5b823561535f81614b76565b915060208301356001600160401b0381111561537a57600080fd5b61510585828601615131565b602081016108a88284614c1a565b600181811c908216806153a857607f821691505b60208210811415614f5957634e487b7160e01b600052602260045260246000fd5b6000602082840312156153db57600080fd5b8151612840816152b2565b6020808252600b908201526a6e6f74207374616b696e6760a81b604082015260600190565b6001600160a01b0392831681529116602082015260400190565b60006020828403121561543757600080fd5b815161284081614b76565b81835281816020850137506000828201602090810191909152601f909101601f19169091010190565b6001600160a01b03841681526040602082018190526000906154909083018486615442565b95945050505050565b634e487b7160e01b600052601160045260246000fd5b6000828210156154c1576154c1615499565b500390565b634e487b7160e01b600052603260045260246000fd5b600082198211156154ef576154ef615499565b500190565b602081526000615508602083018486615442565b949350505050565b6001600160a01b03841681526040602082018190528181018390526000908460608401835b8681101561555b5782358252602080840135908301529183019190830190600101615535565b50979650505050505050565b60208082526017908201527f696e636f72726563742070726f6a656374207068617365000000000000000000604082015260600190565b60c081016108a88284803582526020810135602083015260408101356040830152606081013560608301526080810135608083015260a081013560a08301525050565b6000602082840312156155f357600080fd5b5051919050565b6020808252601690820152751c1c9bda9958dd08191bd95cc81b9bdd08195e1a5cdd60521b604082015260600190565b60006020828403121561563c57600080fd5b81516003811061284057600080fd5b6001600160a01b0384811682528316602082015260606040820181905260009061549090830184614bd8565b600060c0828403121561568957600080fd5b60405160c081018181106001600160401b03821117156156ab576156ab614fc1565b8060405250825181526020830151602082015260408301516040820152606083015160608201526080830151608082015260a083015160a08201528091505092915050565b83516001600160a01b0390811682526020808601519091169082015260408085015190820152610140810161575d6060830185805182526020810151602083015260408101516040830152606081015160608301526080810151608083015260a081015160a08301525050565b6001600160a01b0392909216610120919091015292915050565b6001600160a01b0384811682528316602082015261010081016155086040830184805182526020810151602083015260408101516040830152606081015160608301526080810151608083015260a081015160a08301525050565b600060208083850312156157e557600080fd5b82516001600160401b03808211156157fc57600080fd5b908401906060828703121561581057600080fd5b615818614fd7565b82518281111561582757600080fd5b8301601f8101881361583857600080fd5b80518381111561584a5761584a614fc1565b615858868260051b01615021565b818152868101945060069190911b82018601908982111561587857600080fd5b918601915b818310156158bb576040838b0312156158965760008081fd5b61589e614fff565b83518152878401518882015285529386019360409092019161587d565b83525050828401519381019390935250604090810151908201529392505050565b600081518084526020808501945080840160005b838110156159205761590d87835180518252602090810151910152565b60409690960195908201906001016158f0565b509495945050505050565b83516001600160a01b039081168252602080860151909116908201526040808501519082015260a0606082015260008351606060a08401526159716101008401826158dc565b602086015160c085015260409095015160e084015250506001600160a01b0391909116608090910152919050565b6001600160a01b0386811682528516602082015260a0604082018190526000906159cb908301866158dc565b606083019490945250608001529392505050565b6000606083018235601e198436030181126159f957600080fd5b830180356001600160401b03811115615a1157600080fd5b8060061b3603851315615a2357600080fd5b606086529182905260200190600090608086015b81831015615a605783358152602080850135908201526040938401936001939093019201615a37565b60208601356020880152604086013560408801528094505050505092915050565b604081526000615a9460408301856159df565b90508260208301529392505050565b60208152600061284060208301846159df565b8581526001600160a01b03858116602083015284811660408301528316606082015260c08101615af3608083018480518252602090810151910152565b9695505050505050565b60e08101615b408285803582526020810135602083015260408101356040830152606081013560608301526080810135608083015260a081013560a08301525050565b8260c08301529392505050565b6020808252602e908201527f496e697469616c697a61626c653a20636f6e747261637420697320616c72656160408201526d191e481a5b9a5d1a585b1a5e995960921b606082015260800190565b7f416363657373436f6e74726f6c3a206163636f756e7420000000000000000000815260008351615bd3816017850160208801614ba8565b7001034b99036b4b9b9b4b733903937b6329607d1b6017918401918201528351615c04816028840160208801614ba8565b01602801949350505050565b6020815260006128406020830184614bd8565b6000816000190483118215151615615c3d57615c3d615499565b500290565b600081615c5157615c51615499565b506000190190565b634e487b7160e01b600052603160045260246000fdfe46f4f437722637bec5e5688079d65a65b39ccc0eab8f55f9bb26e65f4d559ffea26469706673582212208c957132de3e6e24117384d892b14fbb5b936ca5a754e931f9134f92f8583f2064736f6c63430008090033",
  "linkReferences": {},
  "deployedLinkReferences": {}
}