{
  "_format": "hh-sol-artifact-1",
  "contractName": "ProjectNest",
  "sourceName": "contracts/EarlyStage/ProjectNest.sol",
  "abi": [
    {
      "inputs": [
        {
          "internalType": "address",
          "name": "projectCreator_",
          "type": "address"
        },
        {
          "internalType": "address",
          "name": "allocationToken_",
          "type": "address"
        }
      ],
      "stateMutability": "nonpayable",
      "type": "constructor"
    },
    {
      "inputs": [
        {
          "internalType": "uint256",
          "name": "x",
          "type": "uint256"
        }
      ],
      "name": "PRBMathUD60x18__LogInputTooSmall",
      "type": "error"
    },
    {
      "anonymous": false,
      "inputs": [
        {
          "indexed": true,
          "internalType": "address",
          "name": "account",
          "type": "address"
        },
        {
          "indexed": false,
          "internalType": "uint256",
          "name": "amount",
          "type": "uint256"
        },
        {
          "indexed": false,
          "internalType": "uint256",
          "name": "allocationValue",
          "type": "uint256"
        }
      ],
      "name": "AllocationIncreased",
      "type": "event"
    },
    {
      "anonymous": false,
      "inputs": [
        {
          "indexed": true,
          "internalType": "address",
          "name": "account",
          "type": "address"
        },
        {
          "indexed": false,
          "internalType": "uint256",
          "name": "amount",
          "type": "uint256"
        },
        {
          "indexed": false,
          "internalType": "uint256",
          "name": "allocationValue",
          "type": "uint256"
        }
      ],
      "name": "AllocationPenalized",
      "type": "event"
    },
    {
      "anonymous": false,
      "inputs": [
        {
          "indexed": true,
          "internalType": "address",
          "name": "account",
          "type": "address"
        },
        {
          "indexed": false,
          "internalType": "uint256",
          "name": "amount",
          "type": "uint256"
        },
        {
          "indexed": false,
          "internalType": "uint256",
          "name": "allocationValue",
          "type": "uint256"
        }
      ],
      "name": "AllocationReduced",
      "type": "event"
    },
    {
      "anonymous": false,
      "inputs": [
        {
          "indexed": true,
          "internalType": "address",
          "name": "account",
          "type": "address"
        },
        {
          "indexed": false,
          "internalType": "uint256",
          "name": "amount",
          "type": "uint256"
        },
        {
          "indexed": false,
          "internalType": "uint256",
          "name": "allocationValue",
          "type": "uint256"
        }
      ],
      "name": "AllocationRefunded",
      "type": "event"
    },
    {
      "anonymous": false,
      "inputs": [
        {
          "indexed": false,
          "internalType": "address",
          "name": "ceTokenDistributor",
          "type": "address"
        }
      ],
      "name": "CeTokenDistributionStrategySet",
      "type": "event"
    },
    {
      "anonymous": false,
      "inputs": [
        {
          "indexed": false,
          "internalType": "address",
          "name": "ceToken",
          "type": "address"
        },
        {
          "indexed": false,
          "internalType": "uint256",
          "name": "amount",
          "type": "uint256"
        }
      ],
      "name": "CeTokensClaimed",
      "type": "event"
    },
    {
      "anonymous": false,
      "inputs": [
        {
          "indexed": false,
          "internalType": "uint256",
          "name": "finalInvestment",
          "type": "uint256"
        },
        {
          "indexed": false,
          "internalType": "uint256",
          "name": "tokenPrice",
          "type": "uint256"
        },
        {
          "indexed": false,
          "internalType": "uint256",
          "name": "tokensAmount",
          "type": "uint256"
        }
      ],
      "name": "DealFinalized",
      "type": "event"
    },
    {
      "anonymous": false,
      "inputs": [
        {
          "components": [
            {
              "internalType": "uint256",
              "name": "releaseDate",
              "type": "uint256"
            },
            {
              "internalType": "uint256",
              "name": "tokensAmount",
              "type": "uint256"
            }
          ],
          "indexed": false,
          "internalType": "struct IVestingV2.DiscreteVestingRelease[]",
          "name": "vestingSchedule",
          "type": "tuple[]"
        },
        {
          "indexed": false,
          "internalType": "uint256",
          "name": "lockedPoolDuration",
          "type": "uint256"
        },
        {
          "indexed": false,
          "internalType": "uint256",
          "name": "startingFeeMantissa",
          "type": "uint256"
        }
      ],
      "name": "DiscreteVestingSet",
      "type": "event"
    },
    {
      "anonymous": false,
      "inputs": [
        {
          "indexed": false,
          "internalType": "uint256",
          "name": "finalInvestment",
          "type": "uint256"
        },
        {
          "indexed": false,
          "internalType": "uint256",
          "name": "overinvestmentRatio",
          "type": "uint256"
        }
      ],
      "name": "FinalInvestmentSet",
      "type": "event"
    },
    {
      "anonymous": false,
      "inputs": [
        {
          "indexed": true,
          "internalType": "address",
          "name": "account",
          "type": "address"
        },
        {
          "indexed": false,
          "internalType": "uint256",
          "name": "amount",
          "type": "uint256"
        },
        {
          "indexed": false,
          "internalType": "uint256",
          "name": "allocationReleased",
          "type": "uint256"
        }
      ],
      "name": "InvestmentIncreased",
      "type": "event"
    },
    {
      "anonymous": false,
      "inputs": [
        {
          "indexed": true,
          "internalType": "address",
          "name": "account",
          "type": "address"
        },
        {
          "indexed": false,
          "internalType": "uint256",
          "name": "amount",
          "type": "uint256"
        }
      ],
      "name": "InvestmentRefunded",
      "type": "event"
    },
    {
      "anonymous": false,
      "inputs": [
        {
          "components": [
            {
              "internalType": "uint256",
              "name": "startTimestamp",
              "type": "uint256"
            },
            {
              "internalType": "uint256",
              "name": "initialRelease",
              "type": "uint256"
            },
            {
              "internalType": "uint256",
              "name": "cliff",
              "type": "uint256"
            },
            {
              "internalType": "uint256",
              "name": "period",
              "type": "uint256"
            },
            {
              "internalType": "uint256",
              "name": "lockedPoolDuration",
              "type": "uint256"
            },
            {
              "internalType": "uint256",
              "name": "startingFeeMantissa",
              "type": "uint256"
            }
          ],
          "indexed": false,
          "internalType": "struct IVestingV2.LinearVestingParameters",
          "name": "vestingData",
          "type": "tuple"
        }
      ],
      "name": "LinearVestingSet",
      "type": "event"
    },
    {
      "anonymous": false,
      "inputs": [
        {
          "indexed": true,
          "internalType": "address",
          "name": "previousOwner",
          "type": "address"
        },
        {
          "indexed": true,
          "internalType": "address",
          "name": "newOwner",
          "type": "address"
        }
      ],
      "name": "OwnershipTransferred",
      "type": "event"
    },
    {
      "anonymous": false,
      "inputs": [],
      "name": "ProjectNestClosed",
      "type": "event"
    },
    {
      "anonymous": false,
      "inputs": [
        {
          "indexed": false,
          "internalType": "address",
          "name": "supportedStablecoin",
          "type": "address"
        },
        {
          "indexed": false,
          "internalType": "uint256",
          "name": "allocationParameterA",
          "type": "uint256"
        },
        {
          "indexed": false,
          "internalType": "uint256",
          "name": "allocationParameterB",
          "type": "uint256"
        }
      ],
      "name": "ProjectNestOpened",
      "type": "event"
    },
    {
      "anonymous": false,
      "inputs": [
        {
          "indexed": false,
          "internalType": "uint256",
          "name": "raiseTarget",
          "type": "uint256"
        }
      ],
      "name": "ProjectRaiseTargetSet",
      "type": "event"
    },
    {
      "anonymous": false,
      "inputs": [
        {
          "indexed": false,
          "internalType": "address",
          "name": "tokenAddress",
          "type": "address"
        },
        {
          "indexed": false,
          "internalType": "uint256",
          "name": "tokenPrice",
          "type": "uint256"
        }
      ],
      "name": "ProjectTokenUpdated",
      "type": "event"
    },
    {
      "anonymous": false,
      "inputs": [
        {
          "indexed": false,
          "internalType": "address",
          "name": "stablecoinDistributor",
          "type": "address"
        }
      ],
      "name": "StablecoinDistributionStrategySet",
      "type": "event"
    },
    {
      "anonymous": false,
      "inputs": [
        {
          "indexed": false,
          "internalType": "address",
          "name": "vestingContract_",
          "type": "address"
        }
      ],
      "name": "VestingContractSet",
      "type": "event"
    },
    {
      "inputs": [
        {
          "internalType": "address",
          "name": "",
          "type": "address"
        }
      ],
      "name": "allocationBalances",
      "outputs": [
        {
          "internalType": "uint256",
          "name": "",
          "type": "uint256"
        }
      ],
      "stateMutability": "view",
      "type": "function"
    },
    {
      "inputs": [],
      "name": "allocationParameters",
      "outputs": [
        {
          "internalType": "uint256",
          "name": "a",
          "type": "uint256"
        },
        {
          "internalType": "uint256",
          "name": "b",
          "type": "uint256"
        }
      ],
      "stateMutability": "view",
      "type": "function"
    },
    {
      "inputs": [],
      "name": "allocationToken",
      "outputs": [
        {
          "internalType": "contract ICollateralTokenV2",
          "name": "",
          "type": "address"
        }
      ],
      "stateMutability": "view",
      "type": "function"
    },
    {
      "inputs": [
        {
          "internalType": "uint256",
          "name": "allocationAmount_",
          "type": "uint256"
        }
      ],
      "name": "calculateAllocationValue",
      "outputs": [
        {
          "internalType": "uint256",
          "name": "",
          "type": "uint256"
        }
      ],
      "stateMutability": "view",
      "type": "function"
    },
    {
      "inputs": [
        {
          "internalType": "address",
          "name": "account_",
          "type": "address"
        },
        {
          "internalType": "uint256",
          "name": "allocationAmountIncrease_",
          "type": "uint256"
        }
      ],
      "name": "calculateAllocationValueIncrease",
      "outputs": [
        {
          "internalType": "uint256",
          "name": "",
          "type": "uint256"
        }
      ],
      "stateMutability": "view",
      "type": "function"
    },
    {
      "inputs": [],
      "name": "ceTokenContract",
      "outputs": [
        {
          "internalType": "contract ICeToken",
          "name": "",
          "type": "address"
        }
      ],
      "stateMutability": "view",
      "type": "function"
    },
    {
      "inputs": [],
      "name": "ceTokenDistributor",
      "outputs": [
        {
          "internalType": "address",
          "name": "",
          "type": "address"
        }
      ],
      "stateMutability": "view",
      "type": "function"
    },
    {
      "inputs": [
        {
          "internalType": "address",
          "name": "",
          "type": "address"
        }
      ],
      "name": "ceTokensClaimed",
      "outputs": [
        {
          "internalType": "bool",
          "name": "",
          "type": "bool"
        }
      ],
      "stateMutability": "view",
      "type": "function"
    },
    {
      "inputs": [
        {
          "internalType": "address",
          "name": "account_",
          "type": "address"
        }
      ],
      "name": "checkClaimableCeTokens",
      "outputs": [
        {
          "internalType": "uint256",
          "name": "",
          "type": "uint256"
        },
        {
          "internalType": "uint256",
          "name": "",
          "type": "uint256"
        },
        {
          "internalType": "uint256",
          "name": "",
          "type": "uint256"
        }
      ],
      "stateMutability": "view",
      "type": "function"
    },
    {
      "inputs": [
        {
          "internalType": "address",
          "name": "account_",
          "type": "address"
        }
      ],
      "name": "checkOverinvestment",
      "outputs": [
        {
          "internalType": "uint256",
          "name": "",
          "type": "uint256"
        }
      ],
      "stateMutability": "view",
      "type": "function"
    },
    {
      "inputs": [
        {
          "internalType": "address",
          "name": "account_",
          "type": "address"
        }
      ],
      "name": "claimCeTokens",
      "outputs": [],
      "stateMutability": "nonpayable",
      "type": "function"
    },
    {
      "inputs": [
        {
          "internalType": "address",
          "name": "account_",
          "type": "address"
        }
      ],
      "name": "claimOverinvestment",
      "outputs": [],
      "stateMutability": "nonpayable",
      "type": "function"
    },
    {
      "inputs": [],
      "name": "closeNest",
      "outputs": [],
      "stateMutability": "nonpayable",
      "type": "function"
    },
    {
      "inputs": [],
      "name": "dealFinalized",
      "outputs": [
        {
          "internalType": "bool",
          "name": "",
          "type": "bool"
        }
      ],
      "stateMutability": "view",
      "type": "function"
    },
    {
      "inputs": [],
      "name": "finalInvestment",
      "outputs": [
        {
          "internalType": "uint256",
          "name": "",
          "type": "uint256"
        }
      ],
      "stateMutability": "view",
      "type": "function"
    },
    {
      "inputs": [],
      "name": "finalInvestmentBlock",
      "outputs": [
        {
          "internalType": "uint256",
          "name": "",
          "type": "uint256"
        }
      ],
      "stateMutability": "view",
      "type": "function"
    },
    {
      "inputs": [
        {
          "internalType": "address",
          "name": "supplier_",
          "type": "address"
        },
        {
          "internalType": "address",
          "name": "vestingFactory_",
          "type": "address"
        }
      ],
      "name": "finalizeDeal",
      "outputs": [],
      "stateMutability": "nonpayable",
      "type": "function"
    },
    {
      "inputs": [],
      "name": "getDiscreteVestingParameters",
      "outputs": [
        {
          "components": [
            {
              "components": [
                {
                  "internalType": "uint256",
                  "name": "releaseDate",
                  "type": "uint256"
                },
                {
                  "internalType": "uint256",
                  "name": "tokensAmount",
                  "type": "uint256"
                }
              ],
              "internalType": "struct IVestingV2.DiscreteVestingRelease[]",
              "name": "schedule",
              "type": "tuple[]"
            },
            {
              "internalType": "uint256",
              "name": "startingFeeMantissa",
              "type": "uint256"
            },
            {
              "internalType": "uint256",
              "name": "lockedPoolDuration",
              "type": "uint256"
            }
          ],
          "internalType": "struct IVestingV2.DiscreteVestingParameters",
          "name": "",
          "type": "tuple"
        }
      ],
      "stateMutability": "view",
      "type": "function"
    },
    {
      "inputs": [],
      "name": "getLinearVestingParameters",
      "outputs": [
        {
          "components": [
            {
              "internalType": "uint256",
              "name": "startTimestamp",
              "type": "uint256"
            },
            {
              "internalType": "uint256",
              "name": "initialRelease",
              "type": "uint256"
            },
            {
              "internalType": "uint256",
              "name": "cliff",
              "type": "uint256"
            },
            {
              "internalType": "uint256",
              "name": "period",
              "type": "uint256"
            },
            {
              "internalType": "uint256",
              "name": "lockedPoolDuration",
              "type": "uint256"
            },
            {
              "internalType": "uint256",
              "name": "startingFeeMantissa",
              "type": "uint256"
            }
          ],
          "internalType": "struct IVestingV2.LinearVestingParameters",
          "name": "",
          "type": "tuple"
        }
      ],
      "stateMutability": "view",
      "type": "function"
    },
    {
      "inputs": [
        {
          "internalType": "address",
          "name": "account_",
          "type": "address"
        },
        {
          "internalType": "uint256",
          "name": "amount_",
          "type": "uint256"
        }
      ],
      "name": "increaseAllocation",
      "outputs": [],
      "stateMutability": "nonpayable",
      "type": "function"
    },
    {
      "inputs": [
        {
          "internalType": "address",
          "name": "account_",
          "type": "address"
        },
        {
          "internalType": "uint256",
          "name": "amount_",
          "type": "uint256"
        }
      ],
      "name": "increaseInvestment",
      "outputs": [],
      "stateMutability": "nonpayable",
      "type": "function"
    },
    {
      "inputs": [
        {
          "internalType": "uint256",
          "name": "raiseTarget_",
          "type": "uint256"
        },
        {
          "internalType": "address",
          "name": "supportedStablecoin_",
          "type": "address"
        },
        {
          "internalType": "address",
          "name": "stablecoinDistributor_",
          "type": "address"
        },
        {
          "internalType": "address",
          "name": "ceTokenDistributor_",
          "type": "address"
        },
        {
          "components": [
            {
              "internalType": "uint256",
              "name": "a",
              "type": "uint256"
            },
            {
              "internalType": "uint256",
              "name": "b",
              "type": "uint256"
            }
          ],
          "internalType": "struct IProjectNest.AllocationParameters",
          "name": "parameters_",
          "type": "tuple"
        }
      ],
      "name": "initializeNest",
      "outputs": [],
      "stateMutability": "nonpayable",
      "type": "function"
    },
    {
      "inputs": [],
      "name": "initialized",
      "outputs": [
        {
          "internalType": "bool",
          "name": "",
          "type": "bool"
        }
      ],
      "stateMutability": "view",
      "type": "function"
    },
    {
      "inputs": [
        {
          "internalType": "address",
          "name": "",
          "type": "address"
        }
      ],
      "name": "investmentBalances",
      "outputs": [
        {
          "internalType": "uint256",
          "name": "",
          "type": "uint256"
        }
      ],
      "stateMutability": "view",
      "type": "function"
    },
    {
      "inputs": [
        {
          "internalType": "address",
          "name": "",
          "type": "address"
        }
      ],
      "name": "maxAllocationValues",
      "outputs": [
        {
          "internalType": "uint256",
          "name": "",
          "type": "uint256"
        }
      ],
      "stateMutability": "view",
      "type": "function"
    },
    {
      "inputs": [],
      "name": "open",
      "outputs": [
        {
          "internalType": "bool",
          "name": "",
          "type": "bool"
        }
      ],
      "stateMutability": "view",
      "type": "function"
    },
    {
      "inputs": [
        {
          "internalType": "address",
          "name": "",
          "type": "address"
        }
      ],
      "name": "overinvestmentClaimed",
      "outputs": [
        {
          "internalType": "uint256",
          "name": "",
          "type": "uint256"
        }
      ],
      "stateMutability": "view",
      "type": "function"
    },
    {
      "inputs": [],
      "name": "overinvestmentRatio",
      "outputs": [
        {
          "internalType": "uint256",
          "name": "",
          "type": "uint256"
        }
      ],
      "stateMutability": "view",
      "type": "function"
    },
    {
      "inputs": [],
      "name": "owner",
      "outputs": [
        {
          "internalType": "address",
          "name": "",
          "type": "address"
        }
      ],
      "stateMutability": "view",
      "type": "function"
    },
    {
      "inputs": [
        {
          "internalType": "address",
          "name": "account_",
          "type": "address"
        },
        {
          "internalType": "uint256",
          "name": "amount_",
          "type": "uint256"
        }
      ],
      "name": "penalizeAllocation",
      "outputs": [],
      "stateMutability": "nonpayable",
      "type": "function"
    },
    {
      "inputs": [],
      "name": "projectCreator",
      "outputs": [
        {
          "internalType": "address",
          "name": "",
          "type": "address"
        }
      ],
      "stateMutability": "view",
      "type": "function"
    },
    {
      "inputs": [],
      "name": "raiseTarget",
      "outputs": [
        {
          "internalType": "uint256",
          "name": "",
          "type": "uint256"
        }
      ],
      "stateMutability": "view",
      "type": "function"
    },
    {
      "inputs": [
        {
          "internalType": "address",
          "name": "account_",
          "type": "address"
        },
        {
          "internalType": "uint256",
          "name": "amount_",
          "type": "uint256"
        }
      ],
      "name": "reduceAllocation",
      "outputs": [],
      "stateMutability": "nonpayable",
      "type": "function"
    },
    {
      "inputs": [
        {
          "internalType": "address",
          "name": "account_",
          "type": "address"
        },
        {
          "internalType": "uint256",
          "name": "amount_",
          "type": "uint256"
        }
      ],
      "name": "refundAllocation",
      "outputs": [],
      "stateMutability": "nonpayable",
      "type": "function"
    },
    {
      "inputs": [
        {
          "internalType": "address",
          "name": "account_",
          "type": "address"
        },
        {
          "internalType": "uint256",
          "name": "amount_",
          "type": "uint256"
        }
      ],
      "name": "refundStablecoin",
      "outputs": [],
      "stateMutability": "nonpayable",
      "type": "function"
    },
    {
      "inputs": [],
      "name": "renounceOwnership",
      "outputs": [],
      "stateMutability": "nonpayable",
      "type": "function"
    },
    {
      "inputs": [
        {
          "internalType": "address",
          "name": "ceTokenDistributor_",
          "type": "address"
        }
      ],
      "name": "setCeTokenDistributionStrategy",
      "outputs": [],
      "stateMutability": "nonpayable",
      "type": "function"
    },
    {
      "inputs": [
        {
          "components": [
            {
              "components": [
                {
                  "internalType": "uint256",
                  "name": "releaseDate",
                  "type": "uint256"
                },
                {
                  "internalType": "uint256",
                  "name": "tokensAmount",
                  "type": "uint256"
                }
              ],
              "internalType": "struct IVestingV2.DiscreteVestingRelease[]",
              "name": "schedule",
              "type": "tuple[]"
            },
            {
              "internalType": "uint256",
              "name": "startingFeeMantissa",
              "type": "uint256"
            },
            {
              "internalType": "uint256",
              "name": "lockedPoolDuration",
              "type": "uint256"
            }
          ],
          "internalType": "struct IVestingV2.DiscreteVestingParameters",
          "name": "vestingParameters_",
          "type": "tuple"
        }
      ],
      "name": "setDiscreteVestingParameters",
      "outputs": [],
      "stateMutability": "nonpayable",
      "type": "function"
    },
    {
      "inputs": [
        {
          "internalType": "uint256",
          "name": "finalInvestment_",
          "type": "uint256"
        }
      ],
      "name": "setFinalInvestment",
      "outputs": [],
      "stateMutability": "nonpayable",
      "type": "function"
    },
    {
      "inputs": [
        {
          "components": [
            {
              "internalType": "uint256",
              "name": "startTimestamp",
              "type": "uint256"
            },
            {
              "internalType": "uint256",
              "name": "initialRelease",
              "type": "uint256"
            },
            {
              "internalType": "uint256",
              "name": "cliff",
              "type": "uint256"
            },
            {
              "internalType": "uint256",
              "name": "period",
              "type": "uint256"
            },
            {
              "internalType": "uint256",
              "name": "lockedPoolDuration",
              "type": "uint256"
            },
            {
              "internalType": "uint256",
              "name": "startingFeeMantissa",
              "type": "uint256"
            }
          ],
          "internalType": "struct IVestingV2.LinearVestingParameters",
          "name": "vestingParameters_",
          "type": "tuple"
        }
      ],
      "name": "setLinearVestingParameters",
      "outputs": [],
      "stateMutability": "nonpayable",
      "type": "function"
    },
    {
      "inputs": [
        {
          "internalType": "uint256",
          "name": "raiseTarget_",
          "type": "uint256"
        }
      ],
      "name": "setRaiseTarget",
      "outputs": [],
      "stateMutability": "nonpayable",
      "type": "function"
    },
    {
      "inputs": [
        {
          "internalType": "address",
          "name": "stablecoinDistributor_",
          "type": "address"
        }
      ],
      "name": "setStablecoinDistributionStrategy",
      "outputs": [],
      "stateMutability": "nonpayable",
      "type": "function"
    },
    {
      "inputs": [
        {
          "internalType": "contract IVestingV2",
          "name": "vestingContract_",
          "type": "address"
        }
      ],
      "name": "setVesting",
      "outputs": [],
      "stateMutability": "nonpayable",
      "type": "function"
    },
    {
      "inputs": [],
      "name": "stablecoinDistributor",
      "outputs": [
        {
          "internalType": "address",
          "name": "",
          "type": "address"
        }
      ],
      "stateMutability": "view",
      "type": "function"
    },
    {
      "inputs": [],
      "name": "supportedStablecoin",
      "outputs": [
        {
          "internalType": "address",
          "name": "",
          "type": "address"
        }
      ],
      "stateMutability": "view",
      "type": "function"
    },
    {
      "inputs": [],
      "name": "tokenAddress",
      "outputs": [
        {
          "internalType": "address",
          "name": "",
          "type": "address"
        }
      ],
      "stateMutability": "view",
      "type": "function"
    },
    {
      "inputs": [],
      "name": "tokenPrice",
      "outputs": [
        {
          "internalType": "uint256",
          "name": "",
          "type": "uint256"
        }
      ],
      "stateMutability": "view",
      "type": "function"
    },
    {
      "inputs": [],
      "name": "tokensAmount",
      "outputs": [
        {
          "internalType": "uint256",
          "name": "",
          "type": "uint256"
        }
      ],
      "stateMutability": "view",
      "type": "function"
    },
    {
      "inputs": [],
      "name": "totalAllocation",
      "outputs": [
        {
          "internalType": "uint256",
          "name": "",
          "type": "uint256"
        }
      ],
      "stateMutability": "view",
      "type": "function"
    },
    {
      "inputs": [],
      "name": "totalInvestment",
      "outputs": [
        {
          "internalType": "uint256",
          "name": "",
          "type": "uint256"
        }
      ],
      "stateMutability": "view",
      "type": "function"
    },
    {
      "inputs": [
        {
          "internalType": "address",
          "name": "newOwner",
          "type": "address"
        }
      ],
      "name": "transferOwnership",
      "outputs": [],
      "stateMutability": "nonpayable",
      "type": "function"
    },
    {
      "inputs": [
        {
          "internalType": "address",
          "name": "tokenAddress_",
          "type": "address"
        },
        {
          "internalType": "uint256",
          "name": "tokenPrice_",
          "type": "uint256"
        }
      ],
      "name": "updateProjectToken",
      "outputs": [],
      "stateMutability": "nonpayable",
      "type": "function"
    },
    {
      "inputs": [],
      "name": "vestingContract",
      "outputs": [
        {
          "internalType": "contract IVestingV2",
          "name": "",
          "type": "address"
        }
      ],
      "stateMutability": "view",
      "type": "function"
    },
    {
      "inputs": [],
      "name": "vestingType",
      "outputs": [
        {
          "internalType": "enum IVestingV2.VestingType",
          "name": "",
          "type": "uint8"
        }
      ],
      "stateMutability": "view",
      "type": "function"
    }
  ],
  "bytecode": "0x60a06040523480156200001157600080fd5b5060405162003c5b38038062003c5b8339810160408190526200003491620000d5565b6200003f3362000068565b6001600160a01b03918216608052600280546001600160a01b031916919092161790556200010d565b600080546001600160a01b038381166001600160a01b0319831681178455604051919092169283917f8be0079c531659141344cd1fd0a4f28419497f9722a3daafe3b4186f6b6457e09190a35050565b80516001600160a01b0381168114620000d057600080fd5b919050565b60008060408385031215620000e957600080fd5b620000f483620000b8565b91506200010460208401620000b8565b90509250929050565b608051613b3262000129600039600061063e0152613b326000f3fe608060405234801561001057600080fd5b50600436106103425760003560e01c806386ee6a79116101b8578063b49750ba11610104578063f00e8bc2116100a2578063f46b4b9c1161007c578063f46b4b9c1461078f578063f622bfa8146107a2578063fcfff16f146107b5578063fd548b3e146107c957600080fd5b8063f00e8bc214610748578063f2bfcb9414610769578063f2fde38b1461077c57600080fd5b8063c6a01abd116100de578063c6a01abd146106d2578063dd3cf8e9146106e7578063e8f5bfd314610715578063e96e5dab1461073557600080fd5b8063b49750ba14610699578063ba11c638146106ac578063bafdf4e2146106bf57600080fd5b806395993c1611610171578063a541a2a21161014b578063a541a2a214610639578063a76c38df14610660578063ad3702f814610673578063b28830bb1461068657600080fd5b806395993c16146106095780639d76ea581461061d578063a1c8209f1461063057600080fd5b806386ee6a791461059957806387f8198f146105ac5780638da5cb5b146105bf57806391b46cc5146105d0578063936bf978146105e3578063941b47eb146105f657600080fd5b80635bf9d54711610292578063715018a61161023057806379203dc41161020a57806379203dc41461056b5780637ac8fe23146105745780637ff9b59614610587578063851319761461059057600080fd5b8063715018a61461053a57806375f8e71514610542578063780c76b91461054b57600080fd5b8063663a0ebb1161026c578063663a0ebb146104f957806367777d88146105015780636a9939f5146105145780636f6ff3bc1461052757600080fd5b80635bf9d547146104ca5780635e6f6045146104dd5780635f58c763146104f057600080fd5b8063279f2bf8116102ff5780634158ab32116102d95780634158ab321461042d578063427a0013146104505780634559ff9b146104635780634df507951461047657600080fd5b8063279f2bf8146103f45780633221d607146104075780633f7e42b71461041a57600080fd5b806306b6cea414610347578063087e1bd91461036f57806310ea13df1461038f57806312445516146103a6578063158ef93e146103c65780631851a994146103ea575b600080fd5b600754600854610355919082565b604080519283526020830191909152015b60405180910390f35b6103776107e9565b6040516001600160a01b039091168152602001610366565b610398601b5481565b604051908152602001610366565b6103986103b4366004613312565b60176020526000908152604090205481565b6000546103da90600160a01b900460ff1681565b6040519015158152602001610366565b6103f26108c8565b005b6103f2610402366004613312565b610951565b6103f2610415366004613345565b610a50565b6103f2610428366004613312565b610c96565b6103da61043b366004613312565b601d6020526000908152604090205460ff1681565b6103f261045e3660046133e7565b610e20565b6103f2610471366004613413565b6110b5565b61047e61113d565b6040516103669190600060c082019050825182526020830151602083015260408301516040830152606083015160608301526080830151608083015260a083015160a083015292915050565b600554610377906001600160a01b031681565b600154610377906001600160a01b031681565b61039860165481565b6103986111b3565b6103f261050f3660046133e7565b61126a565b6103f261052236600461342c565b611336565b6103f2610535366004613312565b61143b565b6103f26114dd565b61039860145481565b610398610559366004613312565b60186020526000908152604090205481565b610398601a5481565b6103f26105823660046133e7565b611513565b61039860155481565b61039860125481565b6103986105a7366004613413565b6116bf565b6103f26105ba366004613413565b611848565b6000546001600160a01b0316610377565b6103986105de3660046133e7565b611a26565b6103f26105f13660046133e7565b611a80565b600254610377906001600160a01b031681565b6000546103da90600160b01b900460ff1681565b600654610377906001600160a01b031681565b61039860135481565b6103777f000000000000000000000000000000000000000000000000000000000000000081565b6103f261066e366004613312565b611c67565b610398610681366004613312565b611eef565b600354610377906001600160a01b031681565b6103f26106a73660046133e7565b611f74565b6103f26106ba366004613467565b6120e6565b6103f26106cd366004613312565b61221c565b6106da612314565b604051610366919061347f565b6106fa6106f5366004613312565b6123cb565b60408051938452602084019290925290820152606001610366565b610398610723366004613312565b601c6020526000908152604090205481565b6103f26107433660046134f0565b61261c565b60005461075c90600160b81b900460ff1681565b6040516103669190613529565b6103f26107773660046133e7565b612774565b6103f261078a366004613312565b6128cf565b600454610377906001600160a01b031681565b6103f26107b03660046133e7565b61296a565b6000546103da90600160a81b900460ff1681565b6103986107d7366004613312565b60196020526000908152604090205481565b60008054600160b01b900460ff1661083d5760405162461bcd60e51b81526020600482015260126024820152711919585b081b9bdd08199a5b985b1a5e995960721b60448201526064015b60405180910390fd5b600160009054906101000a90046001600160a01b03166001600160a01b031663b9d69bf46040518163ffffffff1660e01b815260040160206040518083038186803b15801561088b57600080fd5b505afa15801561089f573d6000803e3d6000fd5b505050506040513d601f19601f820116820180604052508101906108c39190613551565b905090565b6000546001600160a01b031633146108f25760405162461bcd60e51b81526004016108349061356e565b600054600160a81b900460ff1661091b5760405162461bcd60e51b8152600401610834906135a3565b6000805460ff60a81b191681556040517f357be237fb101f5783aed340448d5fcfc76e32afa1967040a230418e0d88fd8b9190a1565b6000546001600160a01b0316331461097b5760405162461bcd60e51b81526004016108349061356e565b600054600160b01b900460ff16156109a55760405162461bcd60e51b8152600401610834906135d2565b6001600160a01b0381166109fb5760405162461bcd60e51b815260206004820152601e60248201527f696e76616c696420737461626c65636f696e4469737472696275746f725f00006044820152606401610834565b600480546001600160a01b0319166001600160a01b0383169081179091556040519081527f4034b431dbc54c8c9b09408a19a2537ac9466bbb76592461f0d155631b154e99906020015b60405180910390a150565b6000546001600160a01b03163314610a7a5760405162461bcd60e51b81526004016108349061356e565b600054600160a81b900460ff1615610aa45760405162461bcd60e51b815260040161083490613602565b600054600160a01b900460ff1615610afe5760405162461bcd60e51b815260206004820152601860248201527f6e65737420616c726561647920696e697469616c697a656400000000000000006044820152606401610834565b6001600160a01b038416610b545760405162461bcd60e51b815260206004820152601c60248201527f696e76616c696420737570706f72746564537461626c65636f696e5f000000006044820152606401610834565b805160011115610b9a5760405162461bcd60e51b81526020600482015260116024820152701c185c985b4810481d1bdbc81cdb585b1b607a1b6044820152606401610834565b600181602001511015610be35760405162461bcd60e51b81526020600482015260116024820152701c185c985b4810881d1bdbc81cdb585b1b607a1b6044820152606401610834565b610bec83610951565b610bf58261221c565b600380546001600160a01b0319166001600160a01b038616179055805160075560208101516008556000805461ffff60a01b191661010160a01b179055610c3b856110b5565b8051602080830151604080516001600160a01b038916815292830193909352918101919091527f85bb4b701fca563f40bcaa911531ac0c206e4473803ac9a3421c65dace1eed5f906060015b60405180910390a15050505050565b6000546001600160a01b03163314610cc05760405162461bcd60e51b81526004016108349061356e565b600054600160b01b900460ff16610d0e5760405162461bcd60e51b81526020600482015260126024820152711119585b081b9bdd08199a5b985b1a5e995960721b6044820152606401610834565b6000806000610d1c846123cb565b925092509250600082118015610d325750804210155b15610d97576001546040516302168fc560e11b81526001600160a01b0386811660048301529091169063042d1f8a90602401600060405180830381600087803b158015610d7e57600080fd5b505af1158015610d92573d6000803e3d6000fd5b505050505b8215610e1a576000610da76107e9565b6001600160a01b038087166000908152601d60205260409020805460ff19166001179055909150610ddb9082168686612b83565b604080516001600160a01b0383168152602081018690527f6250cfee9e26592f1ce66afea13a0a89613df16ea7d49a17a14be27e6c3814219101610c87565b50505050565b6000546001600160a01b03163314610e4a5760405162461bcd60e51b81526004016108349061356e565b600054600160a81b900460ff1615610e745760405162461bcd60e51b815260040161083490613602565b601354610ec35760405162461bcd60e51b815260206004820152601860248201527f66696e616c20696e766573746d656e74206e6f742073657400000000000000006044820152606401610834565b80610f075760405162461bcd60e51b81526020600482015260146024820152731e995c9bc81c195b985b1a5e9948185b5bdd5b9d60621b6044820152606401610834565b6001600160a01b038216600090815260176020526040902054811115610f6f5760405162461bcd60e51b815260206004820152601960248201527f616c6c6f636174696f6e20726566756e6420746f6f20626967000000000000006044820152606401610834565b6001600160a01b03821660009081526017602090815260408083205460198352818420546018909352908320549091610fa791613646565b610fb1908461365d565b610fbb9190613692565b6001600160a01b038416600090815260176020526040812080549293508492909190610fe8908490613646565b9250508190555081601a60008282546110019190613646565b9091555050600254604051632f266b4160e01b81526001600160a01b0385811660048301526024820185905290911690632f266b4190604401600060405180830381600087803b15801561105457600080fd5b505af1158015611068573d6000803e3d6000fd5b505060408051858152602081018590526001600160a01b03871693507f08486b588076654d59fac922d573336eaa154a2e06abf9d7c2ecdd10dceb99b092500160405180910390a2505050565b6000546001600160a01b031633146110df5760405162461bcd60e51b81526004016108349061356e565b600054600160a81b900460ff166111085760405162461bcd60e51b8152600401610834906135a3565b60128190556040518181527fdf93fe58573854b00bd1dd472c59cf7d3daebaabb732ee0703b9f74dc0cf2ed190602001610a45565b6111766040518060c001604052806000815260200160008152602001600081526020016000815260200160008152602001600081525090565b506040805160c0810182526009548152600a546020820152600b5491810191909152600c546060820152600d546080820152600e5460a082015290565b600080600660009054906101000a90046001600160a01b03166001600160a01b031663313ce5676040518163ffffffff1660e01b815260040160206040518083038186803b15801561120457600080fd5b505afa158015611218573d6000803e3d6000fd5b505050506040513d601f19601f8201168201806040525081019061123c91906136b4565b60155490915061124d82600a6137bb565b60135461125a919061365d565b6112649190613692565b91505090565b6000546001600160a01b031633146112945760405162461bcd60e51b81526004016108349061356e565b61129e8282612beb565b6001600160a01b0382166000908152601760205260408120546112c0906116bf565b6001600160a01b038416600090815260186020526040812054919250906112e8908390613646565b60408051858152602081018390529192506001600160a01b038616917fe19487296aac927a38b8c4836669b907fc5dc765d4f43fdd87813405b215b08491015b60405180910390a250505050565b6000546001600160a01b031633146113605760405162461bcd60e51b81526004016108349061356e565b600054600160a81b900460ff161561138a5760405162461bcd60e51b815260040161083490613602565b6006546001600160a01b03166113b25760405162461bcd60e51b8152600401610834906137ca565b6000601554116113d45760405162461bcd60e51b8152600401610834906137f9565b80600f6113e18282613877565b50506000805460ff60b81b1916600160b91b1790557ffa054cf3b693332c09ddabeca810d7cc73a8fc658e12c3d880ba1310e07251df6114218280613826565b83602001358460400135604051610a459493929190613997565b6000546001600160a01b031633146114655760405162461bcd60e51b81526004016108349061356e565b600054600160a81b900460ff161561148f5760405162461bcd60e51b815260040161083490613602565b600180546001600160a01b0319166001600160a01b0383169081179091556040519081527f5cc1ef5240bc2eaf2d8700ad762816942f83c3049659585c4e09280eeaeacea890602001610a45565b6000546001600160a01b031633146115075760405162461bcd60e51b81526004016108349061356e565b6115116000612d3d565b565b600054600160a81b900460ff1661153c5760405162461bcd60e51b8152600401610834906135a3565b6000546001600160a01b031633146115665760405162461bcd60e51b81526004016108349061356e565b806115b35760405162461bcd60e51b815260206004820152601d60248201527f7a65726f2072656475636520616c6c6f636174696f6e20616d6f756e740000006044820152606401610834565b6001600160a01b038216600090815260196020526040902054156116145760405162461bcd60e51b81526020600482015260186024820152771858d8dbdd5b9d08185b1c9958591e481a5b9d995cdd195960421b6044820152606401610834565b61161e8282612beb565b6001600160a01b038216600090815260176020526040812054611640906116bf565b6001600160a01b03841660009081526018602052604081205491925090611668908390613646565b6001600160a01b038516600081815260186020908152604091829020869055815187815290810184905292935090917f0e3257a09d30bdcd514c58b4844ba4e005fe804639b1451928c8d2d22503b0e89101611328565b60006001600760000154101580156116da5750600854600111155b6117265760405162461bcd60e51b815260206004820152601b60248201527f63616e6e6f742063616c63756c61746520616c6c6f636174696f6e00000000006044820152606401610834565b60085460009061175c9061173b85606461365d565b6117459190613692565b61175790670de0b6b3a76400006139e7565b612d8d565b600754611769919061365d565b90506000600360009054906101000a90046001600160a01b03166001600160a01b031663313ce5676040518163ffffffff1660e01b815260040160206040518083038186803b1580156117bb57600080fd5b505afa1580156117cf573d6000803e3d6000fd5b505050506040513d601f19601f820116820180604052508101906117f391906136b4565b905060128160ff16106118285761180b6012826139ff565b61181690600a6137bb565b611820908361365d565b949350505050565b6118338160126139ff565b61183e90600a6137bb565b6118209083613692565b6000546001600160a01b031633146118725760405162461bcd60e51b81526004016108349061356e565b600054600160a81b900460ff161561189c5760405162461bcd60e51b815260040161083490613602565b600054600160b01b900460ff16156118c65760405162461bcd60e51b8152600401610834906135d2565b601354156119165760405162461bcd60e51b815260206004820152601c60248201527f66696e616c20696e766573746d656e7420616c726561647920736574000000006044820152606401610834565b80601b5410156119685760405162461bcd60e51b815260206004820152601a60248201527f66696e616c20696e766573746d656e7420746f6f206c617267650000000000006044820152606401610834565b600081116119b05760405162461bcd60e51b81526020600482015260156024820152741e995c9bc8199a5b985b081a5b9d995cdd1b595b9d605a1b6044820152606401610834565b601381905543601455601b546ec097ce7bc90715b34b9f10000000006119d68383613646565b6119e0919061365d565b6119ea9190613692565b60168190556040805183815260208101929092527fc1c180e5621dc4fc5058e23c4f7dc7a82246041042b0b36ab84f2600fd7cf1029101610a45565b6001600160a01b0382166000908152601760205260408120548190611a50906105a79085906139e7565b6001600160a01b038516600090815260186020526040902054909150611a769082613646565b9150505b92915050565b600054600160a81b900460ff16611aa95760405162461bcd60e51b8152600401610834906135a3565b6000546001600160a01b03163314611ad35760405162461bcd60e51b81526004016108349061356e565b80611b205760405162461bcd60e51b815260206004820152601f60248201527f7a65726f20696e63726561736520616c6c6f636174696f6e20616d6f756e74006044820152606401610834565b6001600160a01b03821660009081526019602052604090205415611b815760405162461bcd60e51b81526020600482015260186024820152771858d8dbdd5b9d08185b1c9958591e481a5b9d995cdd195960421b6044820152606401610834565b6001600160a01b03821660009081526017602052604081208054839290611ba99084906139e7565b9250508190555080601a6000828254611bc291906139e7565b90915550506001600160a01b038216600090815260176020526040812054611be9906116bf565b6001600160a01b03841660009081526018602052604081205491925090611c109083613646565b6001600160a01b038516600081815260186020908152604091829020869055815187815290810184905292935090917f40d519e4a7168c882118f0302c7f6529ae741aefb497c5d63d60cad76398603e9101611328565b600054600160a81b900460ff1615611c915760405162461bcd60e51b815260040161083490613602565b601354611cd85760405162461bcd60e51b81526020600482015260156024820152741e995c9bc8199a5b985b081a5b9d995cdd1b595b9d605a1b6044820152606401610834565b601b54611d1f5760405162461bcd60e51b81526020600482015260156024820152741e995c9bc81d1bdd185b081a5b9d995cdd1b595b9d605a1b6044820152606401610834565b6001600160a01b0381166000908152601c602052604090205415611d855760405162461bcd60e51b815260206004820152601760248201527f6f766572696e766573746d656e742072657475726e65640000000000000000006044820152606401610834565b600060165411611dcb5760405162461bcd60e51b81526020600482015260116024820152707a65726f2072657475726e20726174696f60781b6044820152606401610834565b6001600160a01b038116600090815260196020526040902054611e275760405162461bcd60e51b81526020600482015260146024820152731858d8dbdd5b9d081b9bdd081a5b9d995cdd195960621b6044820152606401610834565b6000611e3282611eef565b6001600160a01b038316600090815260196020526040812080549293508392909190611e5f908490613646565b9250508190555080601b6000828254611e789190613646565b90915550506001600160a01b038083166000908152601c60205260409020829055600354611ea891168383612b83565b816001600160a01b03167f36223d67e276b82c1b7ba6855d656a2b8071564264666ef7977022c5d8a6440282604051611ee391815260200190565b60405180910390a25050565b6001600160a01b0381166000908152601c602090815260408083205460199092528220548291611f1e916139e7565b6001600160a01b0384166000908152601c6020526040902054601654919250906ec097ce7bc90715b34b9f100000000090611f59908461365d565b611f639190613692565b611f6d9190613646565b9392505050565b6000546001600160a01b03163314611f9e5760405162461bcd60e51b81526004016108349061356e565b600054600160a81b900460ff1615611fc85760405162461bcd60e51b815260040161083490613602565b600054600160b01b900460ff1615611ff25760405162461bcd60e51b8152600401610834906135d2565b6001600160a01b0382166120405760405162461bcd60e51b8152602060048201526015602482015274696e76616c696420746f6b656e416464726573735f60581b6044820152606401610834565b600081116120865760405162461bcd60e51b8152602060048201526013602482015272696e76616c696420746f6b656e50726963655f60681b6044820152606401610834565b600680546001600160a01b0319166001600160a01b038416908117909155601582905560408051918252602082018390527f0fa88c3f421c2109809839bb7633369912aafb3b7819e18a99905cd441fbaa44910160405180910390a15050565b6000546001600160a01b031633146121105760405162461bcd60e51b81526004016108349061356e565b600054600160a81b900460ff161561213a5760405162461bcd60e51b815260040161083490613602565b6006546001600160a01b03166121625760405162461bcd60e51b8152600401610834906137ca565b6000601554116121845760405162461bcd60e51b8152600401610834906137f9565b80356009819055602080830135600a819055604080850135600b819055606080870135600c819055608080890135600d81905560a0808b0135600e8190556000805460ff60b81b1916600160b81b17905587519a8b52988a019790975294880193909352908601528401528201527f7a1284d45cf4236edbcbfabd535f0241c3ce978f655d5b040ee0ceeb86ac921c9060c001610a45565b6000546001600160a01b031633146122465760405162461bcd60e51b81526004016108349061356e565b600054600160b01b900460ff16156122705760405162461bcd60e51b8152600401610834906135d2565b6001600160a01b0381166122c65760405162461bcd60e51b815260206004820152601b60248201527f696e76616c6964206365546f6b656e4469737472696275746f725f00000000006044820152606401610834565b600580546001600160a01b0319166001600160a01b0383169081179091556040519081527fa0df3fee60ad26584501784a28a4a66ab7fd7cbba43d8f41f59ac1ca17ec848390602001610a45565b61233860405180606001604052806060815260200160008152602001600081525090565b60408051600f805460806020820284018101909452606083018181529293919284929091849160009085015b828210156123aa57838290600052602060002090600202016040518060400160405290816000820154815260200160018201548152505081526020019060010190612364565b50505050815260200160018201548152602001600282015481525050905090565b6000805481908190600160b01b900460ff166123ef57506000915081905080612615565b6001600160a01b0384166000908152601d602052604081205460ff1661258a576001600160a01b0385166000908152601c6020908152604080832054601990925282205461243d91906139e7565b905060006ec097ce7bc90715b34b9f10000000006016546ec097ce7bc90715b34b9f100000000061246e9190613646565b612478908461365d565b6124829190613692565b905060006013546ec097ce7bc90715b34b9f1000000000836124a4919061365d565b6124ae9190613692565b90506000670de0b6b3a7640000600560009054906101000a90046001600160a01b03166001600160a01b0316638393fa376040518163ffffffff1660e01b815260040160206040518083038186803b15801561250957600080fd5b505afa15801561251d573d6000803e3d6000fd5b505050506040513d601f19601f820116820180604052508101906125419190613a22565b61254b908461365d565b6125559190613692565b90506ec097ce7bc90715b34b9f100000000061256f6111b3565b612579908361365d565b6125839190613692565b9450505050505b60015460405163b630d62d60e01b81526001600160a01b038781166004830152600092839291169063b630d62d90602401604080518083038186803b1580156125d257600080fd5b505afa1580156125e6573d6000803e3d6000fd5b505050506040513d601f19601f8201168201806040525081019061260a9190613a3b565b939650945091925050505b9193909250565b600054600160b01b900460ff16156126465760405162461bcd60e51b8152600401610834906135d2565b6000546001600160a01b031633146126705760405162461bcd60e51b81526004016108349061356e565b6006546001600160a01b03166126985760405162461bcd60e51b8152600401610834906137ca565b6000601554116126ba5760405162461bcd60e51b8152600401610834906137f9565b6000805460ff60b01b1916600160b01b1781556126d56111b3565b6006549091506126f0906001600160a01b0316843084612dbf565b600654612707906001600160a01b03168383612df7565b600454601354600354612728926001600160a01b0391821692911690612df7565b60135460155460408051928352602083019190915281018290527f5071fcbe8c2b0e1b638cced6b66bd285eeb093703bb7c8954de39281d40f06959060600160405180910390a1505050565b6000546001600160a01b0316331461279e5760405162461bcd60e51b81526004016108349061356e565b600054600160a81b900460ff16156127c85760405162461bcd60e51b815260040161083490613602565b8061280a5760405162461bcd60e51b81526020600482015260126024820152711e995c9bc81c99599d5b9908185b5bdd5b9d60721b6044820152606401610834565b6001600160a01b0382166000908152601960205260409020548111156128725760405162461bcd60e51b815260206004820152601960248201527f696e766573746d656e7420726566756e6420746f6f20626967000000000000006044820152606401610834565b6001600160a01b0382166000908152601960205260408120805483929061289a908490613646565b9250508190555080601b60008282546128b39190613646565b9091555050600354611ea8906001600160a01b03168383612b83565b6000546001600160a01b031633146128f95760405162461bcd60e51b81526004016108349061356e565b6001600160a01b03811661295e5760405162461bcd60e51b815260206004820152602660248201527f4f776e61626c653a206e6577206f776e657220697320746865207a65726f206160448201526564647265737360d01b6064820152608401610834565b61296781612d3d565b50565b600054600160a81b900460ff166129935760405162461bcd60e51b8152600401610834906135a3565b6000546001600160a01b031633146129bd5760405162461bcd60e51b81526004016108349061356e565b80612a035760405162461bcd60e51b81526020600482015260166024820152751e995c9bc81a5b9d995cdd1b595b9d08185b5bdd5b9d60521b6044820152606401610834565b6001600160a01b0382166000908152601960209081526040808320546018909252822054612a319190613646565b905081811015612a785760405162461bcd60e51b81526020600482015260126024820152711d1bdbc8189a59c81a5b9d995cdd1b595b9d60721b6044820152606401610834565b6001600160a01b03831660009081526019602052604081208054849290612aa09084906139e7565b9250508190555081601b6000828254612ab991906139e7565b909155506000905082821415612ae857506001600160a01b038316600090815260176020526040902054612b1a565b6001600160a01b0384166000908152601760205260409020548290612b0d908561365d565b612b179190613692565b90505b8015612b2a57612b2a8482612beb565b600354612b42906001600160a01b0316853086612dbf565b60408051848152602081018390526001600160a01b038616917f29d3198b9c5a2a53bd3c2e1c69b8ac0d4caa06908a5144d1fc99e9d07eb3eedd9101611328565b6040516001600160a01b038316602482015260448101829052612be690849063a9059cbb60e01b906064015b60408051601f198184030181529190526020810180516001600160e01b03166001600160e01b031990931692909217909152612f1b565b505050565b80612c2e5760405162461bcd60e51b81526020600482015260136024820152721e995c9bc81c995b19585cd948185b5bdd5b9d606a1b6044820152606401610834565b6001600160a01b038216600090815260176020526040902054811115612c8d5760405162461bcd60e51b8152602060048201526014602482015273185b1b1bd8d85d1a5bdb881d1bdbc81cdb585b1b60621b6044820152606401610834565b6001600160a01b03821660009081526017602052604081208054839290612cb5908490613646565b9250508190555080601a6000828254612cce9190613646565b9091555050600254604051635eb7962960e11b81526001600160a01b038481166004830152602482018490529091169063bd6f2c5290604401600060405180830381600087803b158015612d2157600080fd5b505af1158015612d35573d6000803e3d6000fd5b505050505050565b600080546001600160a01b038381166001600160a01b0319831681178455604051919092169283917f8be0079c531659141344cd1fd0a4f28419497f9722a3daafe3b4186f6b6457e09190a35050565b60006714057b7ef767814f670de0b6b3a7640000612daa84612fed565b0281612db857612db861367c565b0492915050565b6040516001600160a01b0380851660248301528316604482015260648101829052610e1a9085906323b872dd60e01b90608401612baf565b801580612e805750604051636eb1769f60e11b81523060048201526001600160a01b03838116602483015284169063dd62ed3e9060440160206040518083038186803b158015612e4657600080fd5b505afa158015612e5a573d6000803e3d6000fd5b505050506040513d601f19601f82011682018060405250810190612e7e9190613a22565b155b612eeb5760405162461bcd60e51b815260206004820152603660248201527f5361666545524332303a20617070726f76652066726f6d206e6f6e2d7a65726f60448201527520746f206e6f6e2d7a65726f20616c6c6f77616e636560501b6064820152608401610834565b6040516001600160a01b038316602482015260448101829052612be690849063095ea7b360e01b90606401612baf565b6000612f70826040518060400160405280602081526020017f5361666545524332303a206c6f772d6c6576656c2063616c6c206661696c6564815250856001600160a01b031661309d9092919063ffffffff16565b805190915015612be65780806020019051810190612f8e9190613a5f565b612be65760405162461bcd60e51b815260206004820152602a60248201527f5361666545524332303a204552433230206f7065726174696f6e20646964206e6044820152691bdd081cdd58d8d9595960b21b6064820152608401610834565b6000670de0b6b3a764000082101561301b57604051633621413760e21b815260048101839052602401610834565b6000613030670de0b6b3a764000084046130ac565b670de0b6b3a7640000808202935090915083821c90811415613053575050919050565b6706f05b59d3b200005b801561309557670de0b6b3a7640000828002049150671bc16d674ec80000821061308d579283019260019190911c905b60011c61305d565b505050919050565b60606118208484600085613193565b6000600160801b82106130cc57608091821c916130c990826139e7565b90505b600160401b82106130ea57604091821c916130e790826139e7565b90505b640100000000821061310957602091821c9161310690826139e7565b90505b62010000821061312657601091821c9161312390826139e7565b90505b610100821061314257600891821c9161313f90826139e7565b90505b6010821061315d57600491821c9161315a90826139e7565b90505b6004821061317857600291821c9161317590826139e7565b90505b6002821061318e5761318b6001826139e7565b90505b919050565b6060824710156131f45760405162461bcd60e51b815260206004820152602660248201527f416464726573733a20696e73756666696369656e742062616c616e636520666f6044820152651c8818d85b1b60d21b6064820152608401610834565b6001600160a01b0385163b61324b5760405162461bcd60e51b815260206004820152601d60248201527f416464726573733a2063616c6c20746f206e6f6e2d636f6e74726163740000006044820152606401610834565b600080866001600160a01b031685876040516132679190613aad565b60006040518083038185875af1925050503d80600081146132a4576040519150601f19603f3d011682016040523d82523d6000602084013e6132a9565b606091505b50915091506132b98282866132c4565b979650505050505050565b606083156132d3575081611f6d565b8251156132e35782518084602001fd5b8160405162461bcd60e51b81526004016108349190613ac9565b6001600160a01b038116811461296757600080fd5b60006020828403121561332457600080fd5b8135611f6d816132fd565b634e487b7160e01b600052604160045260246000fd5b600080600080600085870360c081121561335e57600080fd5b863595506020870135613370816132fd565b94506040870135613380816132fd565b93506060870135613390816132fd565b92506040607f19820112156133a457600080fd5b506040516040810181811067ffffffffffffffff821117156133c8576133c861332f565b6040526080870135815260a09096013560208701525092959194509290565b600080604083850312156133fa57600080fd5b8235613405816132fd565b946020939093013593505050565b60006020828403121561342557600080fd5b5035919050565b60006020828403121561343e57600080fd5b813567ffffffffffffffff81111561345557600080fd5b820160608185031215611f6d57600080fd5b600060c0828403121561347957600080fd5b50919050565b6020808252825160608383015280516080840181905260009291820190839060a08601905b808310156134cf578351805183528501518583015292840192600192909201916040909101906134a4565b50838701516040870152604087015160608701528094505050505092915050565b6000806040838503121561350357600080fd5b823561350e816132fd565b9150602083013561351e816132fd565b809150509250929050565b602081016003831061354b57634e487b7160e01b600052602160045260246000fd5b91905290565b60006020828403121561356357600080fd5b8151611f6d816132fd565b6020808252818101527f4f776e61626c653a2063616c6c6572206973206e6f7420746865206f776e6572604082015260600190565b60208082526015908201527470726f6a656374206e65737420697320636c6f736560581b604082015260600190565b6020808252601690820152751919585b08185b1c9958591e48199a5b985b1a5e995960521b604082015260600190565b602080825260149082015273383937b532b1ba103732b9ba1034b99037b832b760611b604082015260600190565b634e487b7160e01b600052601160045260246000fd5b60008282101561365857613658613630565b500390565b600081600019048311821515161561367757613677613630565b500290565b634e487b7160e01b600052601260045260246000fd5b6000826136af57634e487b7160e01b600052601260045260246000fd5b500490565b6000602082840312156136c657600080fd5b815160ff81168114611f6d57600080fd5b600181815b808511156137125781600019048211156136f8576136f8613630565b8085161561370557918102915b93841c93908002906136dc565b509250929050565b60008261372957506001611a7a565b8161373657506000611a7a565b816001811461374c576002811461375657613772565b6001915050611a7a565b60ff84111561376757613767613630565b50506001821b611a7a565b5060208310610133831016604e8410600b8410161715613795575081810a611a7a565b61379f83836136d7565b80600019048211156137b3576137b3613630565b029392505050565b6000611f6d60ff84168361371a565b6020808252601590820152741d1bdad95b881859191c995cdcc81b9bdd081cd95d605a1b604082015260600190565b6020808252601390820152721d1bdad95b881c1c9a58d9481b9bdd081cd95d606a1b604082015260600190565b6000808335601e1984360301811261383d57600080fd5b83018035915067ffffffffffffffff82111561385857600080fd5b6020019150600681901b360382131561387057600080fd5b9250929050565b8135601e1983360301811261388b57600080fd5b8201803567ffffffffffffffff8111156138a457600080fd5b6020820191508060061b36038213156138bc57600080fd5b600160401b8111156138d0576138d061332f565b825481845580821015613942576001600160ff1b0360018183118116156138f9576138f9613630565b81841181161561390b5761390b613630565b60008681526020812090925084821b81019084831b015b8082101561393d578382558383830155600282019150613922565b505050505b5060008381526020902060005b8281101561397b578335825560208401356001830155604093909301926002919091019060010161394f565b5050505060208201356001820155604082013560028201555050565b6060808252810184905260008560808301825b878110156139d2578235825260208084013590830152604092830192909101906001016139aa565b50602084019590955250506040015292915050565b600082198211156139fa576139fa613630565b500190565b600060ff821660ff841680821015613a1957613a19613630565b90039392505050565b600060208284031215613a3457600080fd5b5051919050565b60008060408385031215613a4e57600080fd5b505080516020909101519092909150565b600060208284031215613a7157600080fd5b81518015158114611f6d57600080fd5b60005b83811015613a9c578181015183820152602001613a84565b83811115610e1a5750506000910152565b60008251613abf818460208701613a81565b9190910192915050565b6020815260008251806020840152613ae8816040850160208701613a81565b601f01601f1916919091016040019291505056fea264697066735822122093e77361150a6a3565f0f9a782d691661aa3b6bc4afa17a2c8048d4509379fb864736f6c63430008090033",
  "linkReferences": {},
  "deployedLinkReferences": {}
}